{
  "address": "0x1F3e20f2346fA744fCCD2A35eC109AAD2A1f5210",
  "abi": [
    {
      "anonymous": false,
      "inputs": [
        {
          "indexed": true,
          "internalType": "address",
          "name": "previousOwner",
          "type": "address"
        },
        {
          "indexed": true,
          "internalType": "address",
          "name": "newOwner",
          "type": "address"
        }
      ],
      "name": "OwnershipTransferred",
      "type": "event"
    },
    {
      "anonymous": false,
      "inputs": [
        {
          "indexed": false,
          "internalType": "address",
          "name": "account",
          "type": "address"
        }
      ],
      "name": "Paused",
      "type": "event"
    },
    {
      "anonymous": false,
      "inputs": [
        {
          "indexed": true,
          "internalType": "address",
          "name": "sender",
          "type": "address"
        },
        {
          "indexed": true,
          "internalType": "contract IERC20",
          "name": "srcToken",
          "type": "address"
        },
        {
          "indexed": true,
          "internalType": "contract IERC20",
          "name": "dstToken",
          "type": "address"
        },
        {
          "indexed": false,
          "internalType": "address",
          "name": "dstReceiver",
          "type": "address"
        },
        {
          "indexed": false,
          "internalType": "uint256",
          "name": "amount",
          "type": "uint256"
        },
        {
          "indexed": false,
          "internalType": "uint256",
          "name": "spentAmount",
          "type": "uint256"
        },
        {
          "indexed": false,
          "internalType": "uint256",
          "name": "returnAmount",
          "type": "uint256"
        },
        {
          "indexed": false,
          "internalType": "uint256",
          "name": "minReturnAmount",
          "type": "uint256"
        },
        {
          "indexed": false,
          "internalType": "uint256",
          "name": "guaranteedAmount",
          "type": "uint256"
        },
        {
          "indexed": false,
          "internalType": "address",
          "name": "referrer",
          "type": "address"
        }
      ],
      "name": "Swapped",
      "type": "event"
    },
    {
      "anonymous": false,
      "inputs": [
        {
          "indexed": false,
          "internalType": "address",
          "name": "account",
          "type": "address"
        }
      ],
      "name": "Unpaused",
      "type": "event"
    },
    {
      "inputs": [
        {
          "internalType": "contract IERC20",
          "name": "srcToken",
          "type": "address"
        },
        {
          "internalType": "uint256",
          "name": "amount",
          "type": "uint256"
        },
        {
          "internalType": "uint256",
          "name": "minReturn",
          "type": "uint256"
        },
        {
          "internalType": "bytes32[]",
          "name": "",
          "type": "bytes32[]"
        }
      ],
      "name": "callUniswap",
      "outputs": [
        {
          "internalType": "uint256",
          "name": "returnAmount",
          "type": "uint256"
        }
      ],
      "stateMutability": "payable",
      "type": "function"
    },
    {
      "inputs": [],
      "name": "initialize",
      "outputs": [],
      "stateMutability": "nonpayable",
      "type": "function"
    },
    {
      "inputs": [],
      "name": "owner",
      "outputs": [
        {
          "internalType": "address",
          "name": "",
          "type": "address"
        }
      ],
      "stateMutability": "view",
      "type": "function"
    },
    {
      "inputs": [],
      "name": "pause",
      "outputs": [],
      "stateMutability": "nonpayable",
      "type": "function"
    },
    {
      "inputs": [],
      "name": "paused",
      "outputs": [
        {
          "internalType": "bool",
          "name": "",
          "type": "bool"
        }
      ],
      "stateMutability": "view",
      "type": "function"
    },
    {
      "inputs": [],
      "name": "renounceOwnership",
      "outputs": [],
      "stateMutability": "nonpayable",
      "type": "function"
    },
    {
      "inputs": [
        {
          "internalType": "contract IERC20",
          "name": "token",
          "type": "address"
        },
        {
          "internalType": "uint256",
          "name": "amount",
          "type": "uint256"
        }
      ],
      "name": "rescueFunds",
      "outputs": [],
      "stateMutability": "nonpayable",
      "type": "function"
    },
    {
      "inputs": [
        {
          "internalType": "contract IOpenOceanCaller",
          "name": "caller",
          "type": "address"
        },
        {
          "components": [
            {
              "internalType": "contract IERC20",
              "name": "srcToken",
              "type": "address"
            },
            {
              "internalType": "contract IERC20",
              "name": "dstToken",
              "type": "address"
            },
            {
              "internalType": "address",
              "name": "srcReceiver",
              "type": "address"
            },
            {
              "internalType": "address",
              "name": "dstReceiver",
              "type": "address"
            },
            {
              "internalType": "uint256",
              "name": "amount",
              "type": "uint256"
            },
            {
              "internalType": "uint256",
              "name": "minReturnAmount",
              "type": "uint256"
            },
            {
              "internalType": "uint256",
              "name": "guaranteedAmount",
              "type": "uint256"
            },
            {
              "internalType": "uint256",
              "name": "flags",
              "type": "uint256"
            },
            {
              "internalType": "address",
              "name": "referrer",
              "type": "address"
            },
            {
              "internalType": "bytes",
              "name": "permit",
              "type": "bytes"
            }
          ],
          "internalType": "struct OpenOceanExchange.SwapDescription",
          "name": "desc",
          "type": "tuple"
        },
        {
          "components": [
            {
              "internalType": "uint256",
              "name": "target",
              "type": "uint256"
            },
            {
              "internalType": "uint256",
              "name": "gasLimit",
              "type": "uint256"
            },
            {
              "internalType": "uint256",
              "name": "value",
              "type": "uint256"
            },
            {
              "internalType": "bytes",
              "name": "data",
              "type": "bytes"
            }
          ],
          "internalType": "struct IOpenOceanCaller.CallDescription[]",
          "name": "calls",
          "type": "tuple[]"
        }
      ],
      "name": "swap",
      "outputs": [
        {
          "internalType": "uint256",
          "name": "returnAmount",
          "type": "uint256"
        }
      ],
      "stateMutability": "payable",
      "type": "function"
    },
    {
      "inputs": [
        {
          "internalType": "address",
          "name": "newOwner",
          "type": "address"
        }
      ],
      "name": "transferOwnership",
      "outputs": [],
      "stateMutability": "nonpayable",
      "type": "function"
    },
    {
      "stateMutability": "payable",
      "type": "receive"
    }
  ],
  "transactionHash": "0x0c0e9bcae6594a288c498e93982c9c35fab6e0963d85c417724bcdcaba8336a4",
  "args": [],
  "solcInputHash": "5f5bf32605b6614949169d10e7fb366d",
  "bytecode": "0x608060405234801561001057600080fd5b5061203a806100206000396000f3fe60806040526004361061008a5760003560e01c80638456cb59116100595780638456cb59146101185780638980041a1461012d5780638da5cb5b1461014d57806390411a321461016f578063f2fde38b146101825761009e565b80635c975abb146100a3578063715018a6146100ce57806378e3214f146100e35780638129fc1c146101035761009e565b3661009e573332141561009c57600080fd5b005b600080fd5b3480156100af57600080fd5b506100b86101a2565b6040516100c59190611b5a565b60405180910390f35b3480156100da57600080fd5b5061009c6101ab565b3480156100ef57600080fd5b5061009c6100fe366004611803565b61023d565b34801561010f57600080fd5b5061009c610294565b34801561012457600080fd5b5061009c610327565b61014061013b36600461182e565b610370565b6040516100c59190611a23565b34801561015957600080fd5b506101626106c7565b6040516100c59190611a2c565b61014061017d366004611896565b6106d6565b34801561018e57600080fd5b5061009c61019d3660046117c7565b6109b9565b60655460ff1690565b6101b3610a7a565b6001600160a01b03166101c46106c7565b6001600160a01b0316146101f35760405162461bcd60e51b81526004016101ea90611e24565b60405180910390fd5b6033546040516000916001600160a01b0316907f8be0079c531659141344cd1fd0a4f28419497f9722a3daafe3b4186f6b6457e0908390a3603380546001600160a01b0319169055565b610245610a7a565b6001600160a01b03166102566106c7565b6001600160a01b03161461027c5760405162461bcd60e51b81526004016101ea90611e24565b6102906001600160a01b0383163383610a7e565b5050565b600054610100900460ff16806102ad57506102ad610ae7565b806102bb575060005460ff16155b6102d75760405162461bcd60e51b81526004016101ea90611d27565b600054610100900460ff16158015610302576000805460ff1961ff0019909116610100171660011790555b61030a610af8565b610312610b76565b8015610324576000805461ff00191690555b50565b61032f610a7a565b6001600160a01b03166103406106c7565b6001600160a01b0316146103665760405162461bcd60e51b81526004016101ea90611e24565b61036e610bf4565b565b6000610446565b3d6000803e3d6000fd5b62461bcd60e51b600052600160e51b60205280604052816000fd5b6000630240bc6b60e21b8252604082600484875afa6103bd576103bd610377565b8151602083015186156103cc57905b63022c0d9f60e01b8452878502633b9aca0092909202820191020490508480156104025781600484015260006024840152610410565b600060048401528160248401525b50866044830152608060648301526000608483015260008060a4846000885af161043c5761043c610377565b9695505050505050565b60405160c0810160405260046064350180356020820191508060200282019050813589600081146104d85734156104975761049760557111696e76616c6964206d73672e76616c756560581b610381565b6323b872dd60e01b85523360048601526001600160a01b038216602486015289604486015260008060648760008f5af16104d3576104d3610377565b61057d565b348a146104ff576104ff60557111696e76616c6964206d73672e76616c756560581b610381565b630d0e30db60e41b85526000806004878d73c778417e063141139fce010982780140aa0cd5ab5af161053357610533610377565b63a9059cbb60e01b85526001600160a01b0382166004860152896024860152600080604487600073c778417e063141139fce010982780140aa0cd5ab5af161057d5761057d610377565b50889450602083015b828110156105ce5780356105c26001600160a01b03821663ffffffff60a01b851660a01c600160ff1b86166001600160a01b0387168b8b61039c565b96509150602001610586565b50600160fe1b8116801561065d576106053063ffffffff60a01b841660a01c600160ff1b85166001600160a01b0386168a8a61039c565b9550632e1a7d4d60e01b8552856004860152600080602487600073c778417e063141139fce010982780140aa0cd5ab5af161064257610642610377565b60008060008089335af161065857610658610377565b610689565b6106863363ffffffff60a01b841660a01c600160ff1b85166001600160a01b0386168a8a61039c565b95505b5050505050838110156106be576106be605a7c164d696e2072657475726e206e6f742072656163686564000000000000610381565b95945050505050565b6033546001600160a01b031690565b60006106e06101a2565b156106fd5760405162461bcd60e51b81526004016101ea90611cfd565b60008460a00135116107215760405162461bcd60e51b81526004016101ea90611dac565b8161073e5760405162461bcd60e51b81526004016101ea90611f09565b60e0840135600061075260208701876117c7565b9050600061076660408801602089016117c7565b905061077a826001600160a01b0316610c66565b61078557600061078b565b86608001355b34146107a95760405162461bcd60e51b81526004016101ea90611c55565b600283161561080d576107c4826001600160a01b0316610c66565b156107e15760405162461bcd60e51b81526004016101ea90611bac565b61080d826107f560608a0160408b016117c7565b60808a01356108086101208c018c611f39565b610cb5565b60008061082060808a0160608b016117c7565b6001600160a01b0316146108435761083e6080890160608a016117c7565b610845565b335b905060006001851661085857600061086b565b61086b6001600160a01b03851633610ddf565b905060006108826001600160a01b03851684610ddf565b90508a6001600160a01b031663a8920d2b348b8b6040518463ffffffff1660e01b81526004016108b3929190611aba565b6000604051808303818588803b1580156108cc57600080fd5b505af11580156108e0573d6000803e3d6000fd5b5050505060808b01359050610908826109026001600160a01b03881687610ddf565b90610e83565b97506001871615610978576109376109296001600160a01b03881633610ddf565b6109028560808f0135610eab565b905061094760a08c013582610ed0565b6109558960808e0135610ed0565b10156109735760405162461bcd60e51b81526004016101ea90611d75565b61099c565b8a60a0013588101561099c5760405162461bcd60e51b81526004016101ea90611d75565b6109aa8b878787858d610f0a565b50505050505050949350505050565b6109c1610a7a565b6001600160a01b03166109d26106c7565b6001600160a01b0316146109f85760405162461bcd60e51b81526004016101ea90611e24565b6001600160a01b038116610a1e5760405162461bcd60e51b81526004016101ea90611bd8565b6033546040516001600160a01b038084169216907f8be0079c531659141344cd1fd0a4f28419497f9722a3daafe3b4186f6b6457e090600090a3603380546001600160a01b0319166001600160a01b0392909216919091179055565b3390565b8015610ae257610a8d83610c66565b15610ace576040516001600160a01b0383169082156108fc029083906000818181858888f19350505050158015610ac8573d6000803e3d6000fd5b50610ae2565b610ae26001600160a01b0384168383610f92565b505050565b6000610af230610fe8565b15905090565b600054610100900460ff1680610b115750610b11610ae7565b80610b1f575060005460ff16155b610b3b5760405162461bcd60e51b81526004016101ea90611d27565b600054610100900460ff16158015610b66576000805460ff1961ff0019909116610100171660011790555b610b6e610fee565b61031261106f565b600054610100900460ff1680610b8f5750610b8f610ae7565b80610b9d575060005460ff16155b610bb95760405162461bcd60e51b81526004016101ea90611d27565b600054610100900460ff16158015610be4576000805460ff1961ff0019909116610100171660011790555b610bec610fee565b610312611149565b610bfc6101a2565b15610c195760405162461bcd60e51b81526004016101ea90611cfd565b6065805460ff191660011790557f62e78cea01bee320cd4e420270b5ea74000d11b0c9f74754ebdbfc544b05a258610c4f610a7a565b604051610c5c9190611a2c565b60405180910390a1565b60006001600160a01b03821673eeeeeeeeeeeeeeeeeeeeeeeeeeeeeeeeeeeeeeee1480610c9d57506001600160a01b038216611010145b80610caf57506001600160a01b038216155b92915050565b60e0811415610dc35760006060866001600160a01b031663d505accf60e01b8585604051602401610ce7929190611b65565b60408051601f198184030181529181526020820180516001600160e01b03166001600160e01b0319909416939093179092529051610d259190611956565b6000604051808303816000865af19150503d8060008114610d62576040519150601f19603f3d011682016040523d82523d6000602084013e610d67565b606091505b509150915081610dc057610da7816040518060400160405280601481526020017302832b936b4ba1031b0b636103330b4b632b21d160651b8152506111d5565b60405162461bcd60e51b81526004016101ea9190611b79565b50505b610dd86001600160a01b0386163386866113e3565b5050505050565b6000610dea83610c66565b15610e0057506001600160a01b03811631610caf565b6040516370a0823160e01b81526001600160a01b038416906370a0823190610e2c908590600401611a2c565b60206040518083038186803b158015610e4457600080fd5b505afa158015610e58573d6000803e3d6000fd5b505050506040513d601f19601f82011682018060405250810190610e7c9190611914565b9392505050565b600082821115610ea55760405162461bcd60e51b81526004016101ea90611c80565b50900390565b600082820183811015610e7c5760405162461bcd60e51b81526004016101ea90611c1e565b600082610edf57506000610caf565b82820282848281610eec57fe5b0414610e7c5760405162461bcd60e51b81526004016101ea90611de3565b836001600160a01b0316856001600160a01b0316336001600160a01b03167f76af224a143865a50b41496e1a73622698692c565c1214bc862f18e22d829c5e868a6080013587878d60a001358e60c001358f610100016020810190610f6f91906117c7565b604051610f829796959493929190611a7d565b60405180910390a4505050505050565b610ae28363a9059cbb60e01b8484604051602401610fb1929190611a64565b60408051601f198184030181529190526020810180516001600160e01b03166001600160e01b03199093169290921790915261140a565b3b151590565b600054610100900460ff16806110075750611007610ae7565b80611015575060005460ff16155b6110315760405162461bcd60e51b81526004016101ea90611d27565b600054610100900460ff16158015610312576000805460ff1961ff0019909116610100171660011790558015610324576000805461ff001916905550565b600054610100900460ff16806110885750611088610ae7565b80611096575060005460ff16155b6110b25760405162461bcd60e51b81526004016101ea90611d27565b600054610100900460ff161580156110dd576000805460ff1961ff0019909116610100171660011790555b60006110e7610a7a565b603380546001600160a01b0319166001600160a01b038316908117909155604051919250906000907f8be0079c531659141344cd1fd0a4f28419497f9722a3daafe3b4186f6b6457e0908290a3508015610324576000805461ff001916905550565b600054610100900460ff16806111625750611162610ae7565b80611170575060005460ff16155b61118c5760405162461bcd60e51b81526004016101ea90611d27565b600054610100900460ff161580156111b7576000805460ff1961ff0019909116610100171660011790555b6065805460ff191690558015610324576000805461ff001916905550565b606060448351101580156112085750826000815181106111f157fe5b6020910101516001600160f81b031916600160fb1b145b801561123357508260018151811061121c57fe5b6020910101516001600160f81b03191660c360f81b145b801561125e57508260028151811061124757fe5b6020910101516001600160f81b031916607960f81b145b801561128957508260038151811061127257fe5b6020910101516001600160f81b031916600560fd1b145b156112e55760606044840190508051604401845110156112bb5760405162461bcd60e51b81526004016101ea90611e59565b82816040516020016112ce9291906119ee565b604051602081830303815290604052915050610caf565b825160241480156113155750826000815181106112fe57fe5b6020910101516001600160f81b031916602760f91b145b801561134057508260018151811061132957fe5b6020910101516001600160f81b031916600960fb1b145b801561136b57508260028151811061135457fe5b6020910101516001600160f81b031916607b60f81b145b801561139657508260038151811061137f57fe5b6020910101516001600160f81b031916607160f81b145b156113bb576024830151826113aa82611499565b6040516020016112ce92919061199f565b816040516020016113cc9190611972565b604051602081830303815290604052905092915050565b611404846323b872dd60e01b858585604051602401610fb193929190611a40565b50505050565b606061145f826040518060400160405280602081526020017f5361666545524332303a206c6f772d6c6576656c2063616c6c206661696c6564815250856001600160a01b03166114c39092919063ffffffff16565b805190915015610ae2578080602001905181019061147d91906117e3565b610ae25760405162461bcd60e51b81526004016101ea90611ebf565b6060610caf826040516020016114af9190611a23565b6040516020818303038152906040526114da565b60606114d28484600085611684565b949350505050565b6060806040518060400160405280601081526020016f181899199a1a9b1b9c1cb0b131b232b360811b81525090506060835160020260020167ffffffffffffffff8111801561152857600080fd5b506040519080825280601f01601f191660200182016040528015611553576020820181803683370190505b509050600360fc1b8160008151811061156857fe5b60200101906001600160f81b031916908160001a905350600f60fb1b8160018151811061159157fe5b60200101906001600160f81b031916908160001a90535060005b845181101561167c578260048683815181106115c357fe5b016020015182516001600160f81b031990911690911c60f81c9081106115e557fe5b602001015160f81c60f81b82826002026002018151811061160257fe5b60200101906001600160f81b031916908160001a9053508285828151811061162657fe5b602091010151815160f89190911c600f1690811061164057fe5b602001015160f81c60f81b82826002026003018151811061165d57fe5b60200101906001600160f81b031916908160001a9053506001016115ab565b509392505050565b6060824710156116a65760405162461bcd60e51b81526004016101ea90611cb7565b6116af85610fe8565b6116cb5760405162461bcd60e51b81526004016101ea90611e88565b60006060866001600160a01b031685876040516116e89190611956565b60006040518083038185875af1925050503d8060008114611725576040519150601f19603f3d011682016040523d82523d6000602084013e61172a565b606091505b509150915061173a828286611745565b979650505050505050565b60608315611754575081610e7c565b8251156117645782518084602001fd5b8160405162461bcd60e51b81526004016101ea9190611b79565b60008083601f84011261178f578182fd5b50813567ffffffffffffffff8111156117a6578182fd5b60208301915083602080830285010111156117c057600080fd5b9250929050565b6000602082840312156117d8578081fd5b8135610e7c81611fef565b6000602082840312156117f4578081fd5b81518015158114610e7c578182fd5b60008060408385031215611815578081fd5b823561182081611fef565b946020939093013593505050565b600080600080600060808688031215611845578081fd5b853561185081611fef565b94506020860135935060408601359250606086013567ffffffffffffffff811115611879578182fd5b6118858882890161177e565b969995985093965092949392505050565b600080600080606085870312156118ab578384fd5b84356118b681611fef565b9350602085013567ffffffffffffffff808211156118d2578485fd5b9086019061014082890312156118e6578485fd5b909350604086013590808211156118fb578384fd5b506119088782880161177e565b95989497509550505050565b600060208284031215611925578081fd5b5051919050565b60008284528282602086013780602084860101526020601f19601f85011685010190509392505050565b60008251611968818460208701611fc3565b9190910192915050565b60008251611984818460208701611fc3565b68556e6b6e6f776e282960b81b920191825250600901919050565b600083516119b1818460208801611fc3565b650a0c2dcd2c6560d31b90830190815283516119d4816006840160208801611fc3565b602960f81b60069290910191820152600701949350505050565b60008351611a00818460208801611fc3565b6508ae4e4dee4560d31b90830190815283516119d4816006840160208801611fc3565b90815260200190565b6001600160a01b0391909116815260200190565b6001600160a01b039384168152919092166020820152604081019190915260600190565b6001600160a01b03929092168252602082015260400190565b6001600160a01b039788168152602081019690965260408601949094526060850192909252608084015260a083015290911660c082015260e00190565b602080825281810183905260009060408084018583028501820187855b88811015611b4c57878303603f190184528135368b9003607e19018112611afc578788fd5b8a01803584528681013587850152858101358685015260806060611b2281840184611f7e565b93508282880152611b36838801858361192c565b978a019796505050928701925050600101611ad7565b509098975050505050505050565b901515815260200190565b6000602082526114d260208301848661192c565b6000602082528251806020840152611b98816040850160208701611fc3565b601f01601f19169190910160400192915050565b602080825260129082015271086d8c2d2da40e8ded6cadc40d2e6408aa8960731b604082015260600190565b60208082526026908201527f4f776e61626c653a206e6577206f776e657220697320746865207a65726f206160408201526564647265737360d01b606082015260800190565b6020808252601b908201527f536166654d6174683a206164646974696f6e206f766572666c6f770000000000604082015260600190565b602080825260119082015270496e76616c6964206d73672e76616c756560781b604082015260600190565b6020808252601e908201527f536166654d6174683a207375627472616374696f6e206f766572666c6f770000604082015260600190565b60208082526026908201527f416464726573733a20696e73756666696369656e742062616c616e636520666f6040820152651c8818d85b1b60d21b606082015260800190565b60208082526010908201526f14185d5cd8589b194e881c185d5cd95960821b604082015260600190565b6020808252602e908201527f496e697469616c697a61626c653a20636f6e747261637420697320616c72656160408201526d191e481a5b9a5d1a585b1a5e995960921b606082015260800190565b6020808252601b908201527f52657475726e20616d6f756e74206973206e6f7420656e6f7567680000000000604082015260600190565b6020808252601a908201527f4d696e2072657475726e2073686f756c64206e6f742062652030000000000000604082015260600190565b60208082526021908201527f536166654d6174683a206d756c7469706c69636174696f6e206f766572666c6f6040820152607760f81b606082015260800190565b6020808252818101527f4f776e61626c653a2063616c6c6572206973206e6f7420746865206f776e6572604082015260600190565b60208082526015908201527424b73b30b634b2103932bb32b93a103932b0b9b7b760591b604082015260600190565b6020808252601d908201527f416464726573733a2063616c6c20746f206e6f6e2d636f6e7472616374000000604082015260600190565b6020808252602a908201527f5361666545524332303a204552433230206f7065726174696f6e20646964206e6040820152691bdd081cdd58d8d9595960b21b606082015260800190565b60208082526016908201527510d85b1b0819185d18481cda1bdd5b1908195e1a5cdd60521b604082015260600190565b6000808335601e19843603018112611f4f578283fd5b83018035915067ffffffffffffffff821115611f69578283fd5b6020019150368190038213156117c057600080fd5b6000808335601e19843603018112611f94578283fd5b830160208101925035905067ffffffffffffffff811115611fb457600080fd5b8036038313156117c057600080fd5b60005b83811015611fde578181015183820152602001611fc6565b838111156114045750506000910152565b6001600160a01b038116811461032457600080fdfea2646970667358221220792a8ba583cc342c04d24d0743e1498766b87b46985160cdd3e53401ecf434df64736f6c634300060c0033",
  "devdoc": {
    "kind": "dev",
    "methods": {
      "owner()": {
        "details": "Returns the address of the current owner."
      },
      "paused()": {
        "details": "Returns true if the contract is paused, and false otherwise."
      },
      "renounceOwnership()": {
        "details": "Leaves the contract without owner. It will not be possible to call `onlyOwner` functions anymore. Can only be called by the current owner. NOTE: Renouncing ownership will leave the contract without an owner, thereby removing any functionality that is only available to the owner."
      },
      "transferOwnership(address)": {
        "details": "Transfers ownership of the contract to a new account (`newOwner`). Can only be called by the current owner."
      }
    },
    "version": 1
  },
  "userdoc": {
    "kind": "user",
    "methods": {},
    "version": 1
  },
  "storageLayout": {
    "storage": [
      {
        "astId": 137,
        "contract": "contracts/OpenOceanExchange.sol:OpenOceanExchange",
        "label": "_initialized",
        "offset": 0,
        "slot": "0",
        "type": "t_bool"
      },
      {
        "astId": 140,
        "contract": "contracts/OpenOceanExchange.sol:OpenOceanExchange",
        "label": "_initializing",
        "offset": 1,
        "slot": "0",
        "type": "t_bool"
      },
      {
        "astId": 484,
        "contract": "contracts/OpenOceanExchange.sol:OpenOceanExchange",
        "label": "__gap",
        "offset": 0,
        "slot": "1",
        "type": "t_array(t_uint256)50_storage"
      },
      {
        "astId": 10,
        "contract": "contracts/OpenOceanExchange.sol:OpenOceanExchange",
        "label": "_owner",
        "offset": 0,
        "slot": "51",
        "type": "t_address"
      },
      {
        "astId": 129,
        "contract": "contracts/OpenOceanExchange.sol:OpenOceanExchange",
        "label": "__gap",
        "offset": 0,
        "slot": "52",
        "type": "t_array(t_uint256)49_storage"
      },
      {
        "astId": 506,
        "contract": "contracts/OpenOceanExchange.sol:OpenOceanExchange",
        "label": "_paused",
        "offset": 0,
        "slot": "101",
        "type": "t_bool"
      },
      {
        "astId": 597,
        "contract": "contracts/OpenOceanExchange.sol:OpenOceanExchange",
        "label": "__gap",
        "offset": 0,
        "slot": "102",
        "type": "t_array(t_uint256)49_storage"
      }
    ],
    "types": {
      "t_address": {
        "encoding": "inplace",
        "label": "address",
        "numberOfBytes": "20"
      },
      "t_array(t_uint256)49_storage": {
        "base": "t_uint256",
        "encoding": "inplace",
        "label": "uint256[49]",
        "numberOfBytes": "1568"
      },
      "t_array(t_uint256)50_storage": {
        "base": "t_uint256",
        "encoding": "inplace",
        "label": "uint256[50]",
        "numberOfBytes": "1600"
      },
      "t_bool": {
        "encoding": "inplace",
        "label": "bool",
        "numberOfBytes": "1"
      },
      "t_uint256": {
        "encoding": "inplace",
        "label": "uint256",
        "numberOfBytes": "32"
      }
    }
  }
}