{
  "address": "0x9F92b2706c643ae6FDF2e9ca472f0E48497385f1",
  "abi": [
    {
      "inputs": [
        {
          "internalType": "address",
          "name": "vault",
          "type": "address"
        },
        {
          "internalType": "bytes32",
          "name": "poolId",
          "type": "bytes32"
        },
        {
          "internalType": "address",
          "name": "pool",
          "type": "address"
        }
      ],
      "name": "balancerV2StablePoolState",
      "outputs": [
        {
          "internalType": "contract IERC20[]",
          "name": "tokens",
          "type": "address[]"
        },
        {
          "internalType": "uint256[]",
          "name": "balances",
          "type": "uint256[]"
        },
        {
          "internalType": "uint256",
          "name": "totalSupply",
          "type": "uint256"
        },
        {
          "internalType": "uint256",
          "name": "amp",
          "type": "uint256"
        },
        {
          "internalType": "uint256",
          "name": "swapFee",
          "type": "uint256"
        }
      ],
      "stateMutability": "view",
      "type": "function"
    },
    {
      "inputs": [
        {
          "internalType": "address",
          "name": "vault",
          "type": "address"
        },
        {
          "internalType": "bytes32",
          "name": "poolId",
          "type": "bytes32"
        },
        {
          "internalType": "address",
          "name": "pool",
          "type": "address"
        }
      ],
      "name": "balancerV2WeightedPoolState",
      "outputs": [
        {
          "internalType": "contract IERC20[]",
          "name": "tokens",
          "type": "address[]"
        },
        {
          "internalType": "uint256[]",
          "name": "balances",
          "type": "uint256[]"
        },
        {
          "internalType": "uint256",
          "name": "totalSupply",
          "type": "uint256"
        },
        {
          "internalType": "uint256[]",
          "name": "weights",
          "type": "uint256[]"
        },
        {
          "internalType": "uint256",
          "name": "swapFee",
          "type": "uint256"
        }
      ],
      "stateMutability": "view",
      "type": "function"
    },
    {
      "inputs": [
        {
          "components": [
            {
              "internalType": "address",
              "name": "pool",
              "type": "address"
            },
            {
              "internalType": "uint8",
              "name": "nCoins",
              "type": "uint8"
            },
            {
              "internalType": "uint8",
              "name": "version",
              "type": "uint8"
            },
            {
              "internalType": "uint256",
              "name": "underlyingDecimals",
              "type": "uint256"
            },
            {
              "internalType": "address",
              "name": "rateCallee",
              "type": "address"
            },
            {
              "internalType": "bytes",
              "name": "rateCalldata",
              "type": "bytes"
            }
          ],
          "internalType": "struct ICurveState.CurvePoolStateQuery",
          "name": "query",
          "type": "tuple"
        }
      ],
      "name": "curvePoolState",
      "outputs": [
        {
          "internalType": "uint256[]",
          "name": "balances",
          "type": "uint256[]"
        },
        {
          "internalType": "uint256[]",
          "name": "underlying_balances",
          "type": "uint256[]"
        },
        {
          "internalType": "uint256[]",
          "name": "rates",
          "type": "uint256[]"
        },
        {
          "internalType": "uint256",
          "name": "A",
          "type": "uint256"
        },
        {
          "internalType": "uint256",
          "name": "fee",
          "type": "uint256"
        }
      ],
      "stateMutability": "view",
      "type": "function"
    }
  ],
  "transactionHash": "0xa17f5adc98ab26239f22b17776198d47a8c91f5a421be8252550afc6d6fd5d72",
  "args": [],
  "solcInputHash": "bf0a9a71403976a446e9fc7c2871aa70",
  "bytecode": "0x608060405234801561001057600080fd5b506112cb806100206000396000f3fe608060405234801561001057600080fd5b50600436106100415760003560e01c80631001f934146100465780631e308cb314610073578063841ae84d14610097575b600080fd5b610059610054366004610e59565b6100bb565b60405161006a95949392919061108d565b60405180910390f35b610086610081366004610d11565b6106d2565b60405161006a95949392919061104a565b6100aa6100a5366004610d11565b6108cc565b60405161006a959493929190610ff8565b6040805160088082526101208201909252606091829182916000918291602082016101008036833701905050945060005b866020015160ff1681101561022b57866040015160ff1660011461018e578651604051634903b0d160e01b81526001600160a01b0390911690634903b0d1906101399084906004016110db565b60206040518083038186803b15801561015157600080fd5b505afa158015610165573d6000803e3d6000fd5b505050506040513d601f19601f820116820180604052508101906101899190610f16565b61020c565b865160405162cb501b60e31b81526001600160a01b039091169063065a80d8906101bc9084906004016110e4565b60206040518083038186803b1580156101d457600080fd5b505afa1580156101e8573d6000803e3d6000fd5b505050506040513d601f19601f8201168201806040525081019061020c9190610f16565b86828151811061021857fe5b60209081029190910101526001016100ec565b5060408051600880825261012082019092529060208201610100803683375050506060870151909350156104de57608086015160a0870151602088015160609060ff1667ffffffffffffffff8111801561028457600080fd5b506040519080825280602002602001820160405280156102ae578160200160208202803683370190505b509050600082511180156102c957506001600160a01b038316155b156104205760005b896020015160ff1681101561041e57896040015160ff1660011461037357895160405163c661065760e01b81526001600160a01b039091169063c66106579061031e9084906004016110db565b60206040518083038186803b15801561033657600080fd5b505afa15801561034a573d6000803e3d6000fd5b505050506040513d601f19601f8201168201806040525081019061036e9190610cf5565b6103f2565b895160405163046e8dd760e31b81526001600160a01b03909116906323746eb8906103a29084906004016110e4565b60206040518083038186803b1580156103ba57600080fd5b505afa1580156103ce573d6000803e3d6000fd5b505050506040513d601f19601f820116820180604052508101906103f29190610cf5565b8282815181106103fe57fe5b6001600160a01b03909216602092830291909101909101526001016102d1565b505b60005b896020015160ff168110156104d557825161045e57670de0b6b3a764000087828151811061044d57fe5b6020026020010181815250506104cd565b606061049d846001600160a01b03871615610479578661048e565b84848151811061048557fe5b60200260200101515b6001600160a01b031690610a81565b9050808060200190518101906104b39190610f16565b8883815181106104bf57fe5b602002602001018181525050505b600101610423565b5050505061051a565b60005b866020015160ff1681101561051857670de0b6b3a764000084828151811061050557fe5b60209081029190910101526001016104e1565b505b60408051600880825261012082019092529060208201610100803683375050506060870151909450156105db5760005b866020015160ff168110156105d9576000610100826008028960600151901c8161057057fe5b0690506105b981600a0a6105b387858151811061058957fe5b60200260200101518a868151811061059d57fe5b6020026020010151610aaf90919063ffffffff16565b90610af2565b8683815181106105c557fe5b60209081029190910101525060010161054a565b505b85600001516001600160a01b031663f446c1d06040518163ffffffff1660e01b815260040160206040518083038186803b15801561061857600080fd5b505afa15801561062c573d6000803e3d6000fd5b505050506040513d601f19601f820116820180604052508101906106509190610f16565b915085600001516001600160a01b031663ddca3f436040518163ffffffff1660e01b815260040160206040518083038186803b15801561068f57600080fd5b505afa1580156106a3573d6000803e3d6000fd5b505050506040513d601f19601f820116820180604052508101906106c79190610f16565b905091939590929450565b6060806000806000876001600160a01b031663f94d4668886040518263ffffffff1660e01b815260040161070691906110db565b60006040518083038186803b15801561071e57600080fd5b505afa158015610732573d6000803e3d6000fd5b505050506040513d6000823e601f3d908101601f1916820160405261075a9190810190610d52565b508095508196505050856001600160a01b03166318160ddd6040518163ffffffff1660e01b815260040160206040518083038186803b15801561079c57600080fd5b505afa1580156107b0573d6000803e3d6000fd5b505050506040513d601f19601f820116820180604052508101906107d49190610f16565b9250856001600160a01b0316636daccffa6040518163ffffffff1660e01b815260040160606040518083038186803b15801561080f57600080fd5b505afa158015610823573d6000803e3d6000fd5b505050506040513d601f19601f820116820180604052508101906108479190610f2e565b90505080925050856001600160a01b03166355c676286040518163ffffffff1660e01b815260040160206040518083038186803b15801561088757600080fd5b505afa15801561089b573d6000803e3d6000fd5b505050506040513d601f19601f820116820180604052508101906108bf9190610f16565b9050939792965093509350565b606080600060606000876001600160a01b031663f94d4668886040518263ffffffff1660e01b815260040161090191906110db565b60006040518083038186803b15801561091957600080fd5b505afa15801561092d573d6000803e3d6000fd5b505050506040513d6000823e601f3d908101601f191682016040526109559190810190610d52565b508095508196505050856001600160a01b03166318160ddd6040518163ffffffff1660e01b815260040160206040518083038186803b15801561099757600080fd5b505afa1580156109ab573d6000803e3d6000fd5b505050506040513d601f19601f820116820180604052508101906109cf9190610f16565b9250856001600160a01b031663f89f27ed6040518163ffffffff1660e01b815260040160006040518083038186803b158015610a0a57600080fd5b505afa158015610a1e573d6000803e3d6000fd5b505050506040513d6000823e601f3d908101601f19168201604052610a469190810190610e1e565b9150856001600160a01b03166355c676286040518163ffffffff1660e01b815260040160206040518083038186803b15801561088757600080fd5b6060610aa6838360405180606001604052806025815260200161127160259139610b24565b90505b92915050565b600082610abe57506000610aa9565b82820282848281610acb57fe5b0414610aa65760405162461bcd60e51b8152600401610ae99061115c565b60405180910390fd5b6000808211610b135760405162461bcd60e51b8152600401610ae990611125565b818381610b1c57fe5b049392505050565b6060610b2f84610bc3565b610b4b5760405162461bcd60e51b8152600401610ae99061119d565b60006060856001600160a01b031685604051610b679190610fdc565b600060405180830381855afa9150503d8060008114610ba2576040519150601f19603f3d011682016040523d82523d6000602084013e610ba7565b606091505b5091509150610bb7828286610bc9565b925050505b9392505050565b3b151590565b60608315610bd8575081610bbc565b825115610be85782518084602001fd5b8160405162461bcd60e51b8152600401610ae991906110f2565b8035610aa981611258565b600082601f830112610c1d578081fd5b8151610c30610c2b82611208565b6111e1565b818152915060208083019084810181840286018201871015610c5157600080fd5b60005b84811015610c7057815184529282019290820190600101610c54565b505050505092915050565b600082601f830112610c8b578081fd5b813567ffffffffffffffff811115610ca1578182fd5b610cb4601f8201601f19166020016111e1565b9150808252836020828501011115610ccb57600080fd5b8060208401602084013760009082016020015292915050565b803560ff81168114610aa957600080fd5b600060208284031215610d06578081fd5b8151610aa681611258565b600080600060608486031215610d25578182fd5b8335610d3081611258565b9250602084013591506040840135610d4781611258565b809150509250925092565b600080600060608486031215610d66578283fd5b835167ffffffffffffffff80821115610d7d578485fd5b818601915086601f830112610d90578485fd5b8151610d9e610c2b82611208565b80828252602080830192508086018b828387028901011115610dbe57898afd5b8996505b84871015610de9578051610dd581611258565b845260019690960195928101928101610dc2565b508901519097509350505080821115610e00578384fd5b50610e0d86828701610c0d565b925050604084015190509250925092565b600060208284031215610e2f578081fd5b815167ffffffffffffffff811115610e45578182fd5b610e5184828501610c0d565b949350505050565b600060208284031215610e6a578081fd5b813567ffffffffffffffff80821115610e81578283fd5b9083019060c08286031215610e94578283fd5b610e9e60c06111e1565b610ea88684610c02565b8152610eb78660208501610ce4565b6020820152610ec98660408501610ce4565b604082015260608301356060820152610ee58660808501610c02565b608082015260a083013582811115610efb578485fd5b610f0787828601610c7b565b60a08301525095945050505050565b600060208284031215610f27578081fd5b5051919050565b600080600060608486031215610f42578283fd5b8351925060208401518015158114610f58578283fd5b80925050604084015190509250925092565b6000815180845260208085019450808401835b83811015610fa25781516001600160a01b031687529582019590820190600101610f7d565b509495945050505050565b6000815180845260208085019450808401835b83811015610fa257815187529582019590820190600101610fc0565b60008251610fee818460208701611228565b9190910192915050565b600060a0825261100b60a0830188610f6a565b828103602084015261101d8188610fad565b905085604084015282810360608401526110378186610fad565b9150508260808301529695505050505050565b600060a0825261105d60a0830188610f6a565b828103602084015261106f8188610fad565b60408401969096525050606081019290925260809091015292915050565b600060a082526110a060a0830188610fad565b82810360208401526110b28188610fad565b905082810360408401526110c68187610fad565b60608401959095525050608001529392505050565b90815260200190565b600f9190910b815260200190565b6000602082528251806020840152611111816040850160208701611228565b601f01601f19169190910160400192915050565b6020808252601a908201527f536166654d6174683a206469766973696f6e206279207a65726f000000000000604082015260600190565b60208082526021908201527f536166654d6174683a206d756c7469706c69636174696f6e206f766572666c6f6040820152607760f81b606082015260800190565b60208082526024908201527f416464726573733a207374617469632063616c6c20746f206e6f6e2d636f6e746040820152631c9858dd60e21b606082015260800190565b60405181810167ffffffffffffffff8111828210171561120057600080fd5b604052919050565b600067ffffffffffffffff82111561121e578081fd5b5060209081020190565b60005b8381101561124357818101518382015260200161122b565b83811115611252576000848401525b50505050565b6001600160a01b038116811461126d57600080fd5b5056fe416464726573733a206c6f772d6c6576656c207374617469632063616c6c206661696c6564a264697066735822122001601ee3fb54792a66fe66b083244e2dbc9273db998b04f8033b7d036ab4ac5264736f6c634300060c0033",
  "devdoc": {
    "kind": "dev",
    "methods": {},
    "version": 1
  },
  "userdoc": {
    "kind": "user",
    "methods": {},
    "version": 1
  },
  "storageLayout": {
    "storage": [],
    "types": null
  }
}