{
  "address": "0xeD85325119cCFc6aCB16FA931bAC6378B76e4615",
  "abi": [
    {
      "anonymous": false,
      "inputs": [
        {
          "indexed": true,
          "internalType": "address",
          "name": "previousOwner",
          "type": "address"
        },
        {
          "indexed": true,
          "internalType": "address",
          "name": "newOwner",
          "type": "address"
        }
      ],
      "name": "OwnershipTransferred",
      "type": "event"
    },
    {
      "anonymous": false,
      "inputs": [
        {
          "indexed": false,
          "internalType": "address",
          "name": "account",
          "type": "address"
        }
      ],
      "name": "Paused",
      "type": "event"
    },
    {
      "anonymous": false,
      "inputs": [
        {
          "indexed": true,
          "internalType": "address",
          "name": "sender",
          "type": "address"
        },
        {
          "indexed": true,
          "internalType": "contract IERC20",
          "name": "srcToken",
          "type": "address"
        },
        {
          "indexed": true,
          "internalType": "contract IERC20",
          "name": "dstToken",
          "type": "address"
        },
        {
          "indexed": false,
          "internalType": "address",
          "name": "dstReceiver",
          "type": "address"
        },
        {
          "indexed": false,
          "internalType": "uint256",
          "name": "amount",
          "type": "uint256"
        },
        {
          "indexed": false,
          "internalType": "uint256",
          "name": "spentAmount",
          "type": "uint256"
        },
        {
          "indexed": false,
          "internalType": "uint256",
          "name": "returnAmount",
          "type": "uint256"
        },
        {
          "indexed": false,
          "internalType": "uint256",
          "name": "minReturnAmount",
          "type": "uint256"
        },
        {
          "indexed": false,
          "internalType": "uint256",
          "name": "guaranteedAmount",
          "type": "uint256"
        },
        {
          "indexed": false,
          "internalType": "address",
          "name": "referrer",
          "type": "address"
        }
      ],
      "name": "Swapped",
      "type": "event"
    },
    {
      "anonymous": false,
      "inputs": [
        {
          "indexed": false,
          "internalType": "address",
          "name": "account",
          "type": "address"
        }
      ],
      "name": "Unpaused",
      "type": "event"
    },
    {
      "inputs": [],
      "name": "initialize",
      "outputs": [],
      "stateMutability": "nonpayable",
      "type": "function"
    },
    {
      "inputs": [],
      "name": "owner",
      "outputs": [
        {
          "internalType": "address",
          "name": "",
          "type": "address"
        }
      ],
      "stateMutability": "view",
      "type": "function"
    },
    {
      "inputs": [],
      "name": "pause",
      "outputs": [],
      "stateMutability": "nonpayable",
      "type": "function"
    },
    {
      "inputs": [],
      "name": "paused",
      "outputs": [
        {
          "internalType": "bool",
          "name": "",
          "type": "bool"
        }
      ],
      "stateMutability": "view",
      "type": "function"
    },
    {
      "inputs": [],
      "name": "renounceOwnership",
      "outputs": [],
      "stateMutability": "nonpayable",
      "type": "function"
    },
    {
      "inputs": [
        {
          "internalType": "contract IERC20",
          "name": "token",
          "type": "address"
        },
        {
          "internalType": "uint256",
          "name": "amount",
          "type": "uint256"
        }
      ],
      "name": "rescueFunds",
      "outputs": [],
      "stateMutability": "nonpayable",
      "type": "function"
    },
    {
      "inputs": [
        {
          "internalType": "contract IOpenOceanCaller",
          "name": "caller",
          "type": "address"
        },
        {
          "components": [
            {
              "internalType": "contract IERC20",
              "name": "srcToken",
              "type": "address"
            },
            {
              "internalType": "contract IERC20",
              "name": "dstToken",
              "type": "address"
            },
            {
              "internalType": "address",
              "name": "srcReceiver",
              "type": "address"
            },
            {
              "internalType": "address",
              "name": "dstReceiver",
              "type": "address"
            },
            {
              "internalType": "uint256",
              "name": "amount",
              "type": "uint256"
            },
            {
              "internalType": "uint256",
              "name": "minReturnAmount",
              "type": "uint256"
            },
            {
              "internalType": "uint256",
              "name": "guaranteedAmount",
              "type": "uint256"
            },
            {
              "internalType": "uint256",
              "name": "flags",
              "type": "uint256"
            },
            {
              "internalType": "address",
              "name": "referrer",
              "type": "address"
            },
            {
              "internalType": "bytes",
              "name": "permit",
              "type": "bytes"
            }
          ],
          "internalType": "struct OpenOceanExchange.SwapDescription",
          "name": "desc",
          "type": "tuple"
        },
        {
          "components": [
            {
              "internalType": "uint256",
              "name": "target",
              "type": "uint256"
            },
            {
              "internalType": "uint256",
              "name": "gasLimit",
              "type": "uint256"
            },
            {
              "internalType": "uint256",
              "name": "value",
              "type": "uint256"
            },
            {
              "internalType": "bytes",
              "name": "data",
              "type": "bytes"
            }
          ],
          "internalType": "struct IOpenOceanCaller.CallDescription[]",
          "name": "calls",
          "type": "tuple[]"
        }
      ],
      "name": "swap",
      "outputs": [
        {
          "internalType": "uint256",
          "name": "returnAmount",
          "type": "uint256"
        }
      ],
      "stateMutability": "payable",
      "type": "function"
    },
    {
      "inputs": [
        {
          "internalType": "address",
          "name": "newOwner",
          "type": "address"
        }
      ],
      "name": "transferOwnership",
      "outputs": [],
      "stateMutability": "nonpayable",
      "type": "function"
    }
  ],
  "transactionHash": "0x6b7dff191f8c0460849fd31bbf4af2b1310f6f8b85dc1f48a7ac5a421454609a",
  "args": [],
  "solcInputHash": "bf0a9a71403976a446e9fc7c2871aa70",
  "bytecode": "0x608060405234801561001057600080fd5b50611c1b806100206000396000f3fe60806040526004361061007b5760003560e01c80638456cb591161004e5780638456cb59146100f75780638da5cb5b1461010c57806390411a321461012e578063f2fde38b1461014e5761007b565b80635c975abb14610080578063715018a6146100ab57806378e3214f146100c25780638129fc1c146100e2575b600080fd5b34801561008c57600080fd5b5061009561016e565b6040516100a29190611779565b60405180910390f35b3480156100b757600080fd5b506100c0610177565b005b3480156100ce57600080fd5b506100c06100dd36600461142f565b610209565b3480156100ee57600080fd5b506100c0610260565b34801561010357600080fd5b506100c06102f3565b34801561011857600080fd5b5061012161033c565b6040516100a2919061161a565b61014161013c36600461145a565b61034b565b6040516100a29190611611565b34801561015a57600080fd5b506100c06101693660046113f3565b61062e565b60655460ff1690565b61017f6106ef565b6001600160a01b031661019061033c565b6001600160a01b0316146101bf5760405162461bcd60e51b81526004016101b690611a43565b60405180910390fd5b6033546040516000916001600160a01b0316907f8be0079c531659141344cd1fd0a4f28419497f9722a3daafe3b4186f6b6457e0908390a3603380546001600160a01b0319169055565b6102116106ef565b6001600160a01b031661022261033c565b6001600160a01b0316146102485760405162461bcd60e51b81526004016101b690611a43565b61025c6001600160a01b03831633836106f3565b5050565b600054610100900460ff1680610279575061027961075c565b80610287575060005460ff16155b6102a35760405162461bcd60e51b81526004016101b690611946565b600054610100900460ff161580156102ce576000805460ff1961ff0019909116610100171660011790555b6102d661076d565b6102de6107eb565b80156102f0576000805461ff00191690555b50565b6102fb6106ef565b6001600160a01b031661030c61033c565b6001600160a01b0316146103325760405162461bcd60e51b81526004016101b690611a43565b61033a610869565b565b6033546001600160a01b031690565b600061035561016e565b156103725760405162461bcd60e51b81526004016101b69061191c565b60008460a00135116103965760405162461bcd60e51b81526004016101b6906119cb565b816103b35760405162461bcd60e51b81526004016101b690611b28565b60e084013560006103c760208701876113f3565b905060006103db60408801602089016113f3565b90506103ef826001600160a01b03166108db565b6103fa576000610400565b86608001355b341461041e5760405162461bcd60e51b81526004016101b690611874565b600283161561048257610439826001600160a01b03166108db565b156104565760405162461bcd60e51b81526004016101b6906117cb565b6104828261046a60608a0160408b016113f3565b60808a013561047d6101208c018c611b58565b61092a565b60008061049560808a0160608b016113f3565b6001600160a01b0316146104b8576104b36080890160608a016113f3565b6104ba565b335b90506000600185166104cd5760006104e0565b6104e06001600160a01b03851633610a54565b905060006104f76001600160a01b03851684610a54565b90508a6001600160a01b031663a8920d2b348b8b6040518463ffffffff1660e01b81526004016105289291906116a8565b6000604051808303818588803b15801561054157600080fd5b505af1158015610555573d6000803e3d6000fd5b5050505060808b0135905061057d826105776001600160a01b03881687610a54565b90610af8565b975060018716156105ed576105ac61059e6001600160a01b03881633610a54565b6105778560808f0135610b20565b90506105bc60a08c013582610b45565b6105ca8960808e0135610b45565b10156105e85760405162461bcd60e51b81526004016101b690611994565b610611565b8a60a001358810156106115760405162461bcd60e51b81526004016101b690611994565b61061f8b878787858d610b7f565b50505050505050949350505050565b6106366106ef565b6001600160a01b031661064761033c565b6001600160a01b03161461066d5760405162461bcd60e51b81526004016101b690611a43565b6001600160a01b0381166106935760405162461bcd60e51b81526004016101b6906117f7565b6033546040516001600160a01b038084169216907f8be0079c531659141344cd1fd0a4f28419497f9722a3daafe3b4186f6b6457e090600090a3603380546001600160a01b0319166001600160a01b0392909216919091179055565b3390565b801561075757610702836108db565b15610743576040516001600160a01b0383169082156108fc029083906000818181858888f1935050505015801561073d573d6000803e3d6000fd5b50610757565b6107576001600160a01b0384168383610c07565b505050565b600061076730610c5d565b15905090565b600054610100900460ff1680610786575061078661075c565b80610794575060005460ff16155b6107b05760405162461bcd60e51b81526004016101b690611946565b600054610100900460ff161580156107db576000805460ff1961ff0019909116610100171660011790555b6107e3610c63565b6102de610ce4565b600054610100900460ff1680610804575061080461075c565b80610812575060005460ff16155b61082e5760405162461bcd60e51b81526004016101b690611946565b600054610100900460ff16158015610859576000805460ff1961ff0019909116610100171660011790555b610861610c63565b6102de610dbe565b61087161016e565b1561088e5760405162461bcd60e51b81526004016101b69061191c565b6065805460ff191660011790557f62e78cea01bee320cd4e420270b5ea74000d11b0c9f74754ebdbfc544b05a2586108c46106ef565b6040516108d1919061161a565b60405180910390a1565b60006001600160a01b03821673eeeeeeeeeeeeeeeeeeeeeeeeeeeeeeeeeeeeeeee148061091257506001600160a01b038216611010145b8061092457506001600160a01b038216155b92915050565b60e0811415610a385760006060866001600160a01b031663d505accf60e01b858560405160240161095c929190611784565b60408051601f198184030181529181526020820180516001600160e01b03166001600160e01b031990941693909317909252905161099a9190611544565b6000604051808303816000865af19150503d80600081146109d7576040519150601f19603f3d011682016040523d82523d6000602084013e6109dc565b606091505b509150915081610a3557610a1c816040518060400160405280601481526020017302832b936b4ba1031b0b636103330b4b632b21d160651b815250610e4a565b60405162461bcd60e51b81526004016101b69190611798565b50505b610a4d6001600160a01b038616338686611058565b5050505050565b6000610a5f836108db565b15610a7557506001600160a01b03811631610924565b6040516370a0823160e01b81526001600160a01b038416906370a0823190610aa190859060040161161a565b60206040518083038186803b158015610ab957600080fd5b505afa158015610acd573d6000803e3d6000fd5b505050506040513d601f19601f82011682018060405250810190610af19190611502565b9392505050565b600082821115610b1a5760405162461bcd60e51b81526004016101b69061189f565b50900390565b600082820183811015610af15760405162461bcd60e51b81526004016101b69061183d565b600082610b5457506000610924565b82820282848281610b6157fe5b0414610af15760405162461bcd60e51b81526004016101b690611a02565b836001600160a01b0316856001600160a01b0316336001600160a01b03167f76af224a143865a50b41496e1a73622698692c565c1214bc862f18e22d829c5e868a6080013587878d60a001358e60c001358f610100016020810190610be491906113f3565b604051610bf7979695949392919061166b565b60405180910390a4505050505050565b6107578363a9059cbb60e01b8484604051602401610c26929190611652565b60408051601f198184030181529190526020810180516001600160e01b03166001600160e01b03199093169290921790915261107f565b3b151590565b600054610100900460ff1680610c7c5750610c7c61075c565b80610c8a575060005460ff16155b610ca65760405162461bcd60e51b81526004016101b690611946565b600054610100900460ff161580156102de576000805460ff1961ff00199091166101001716600117905580156102f0576000805461ff001916905550565b600054610100900460ff1680610cfd5750610cfd61075c565b80610d0b575060005460ff16155b610d275760405162461bcd60e51b81526004016101b690611946565b600054610100900460ff16158015610d52576000805460ff1961ff0019909116610100171660011790555b6000610d5c6106ef565b603380546001600160a01b0319166001600160a01b038316908117909155604051919250906000907f8be0079c531659141344cd1fd0a4f28419497f9722a3daafe3b4186f6b6457e0908290a35080156102f0576000805461ff001916905550565b600054610100900460ff1680610dd75750610dd761075c565b80610de5575060005460ff16155b610e015760405162461bcd60e51b81526004016101b690611946565b600054610100900460ff16158015610e2c576000805460ff1961ff0019909116610100171660011790555b6065805460ff1916905580156102f0576000805461ff001916905550565b60606044835110158015610e7d575082600081518110610e6657fe5b6020910101516001600160f81b031916600160fb1b145b8015610ea8575082600181518110610e9157fe5b6020910101516001600160f81b03191660c360f81b145b8015610ed3575082600281518110610ebc57fe5b6020910101516001600160f81b031916607960f81b145b8015610efe575082600381518110610ee757fe5b6020910101516001600160f81b031916600560fd1b145b15610f5a576060604484019050805160440184511015610f305760405162461bcd60e51b81526004016101b690611a78565b8281604051602001610f439291906115dc565b604051602081830303815290604052915050610924565b82516024148015610f8a575082600081518110610f7357fe5b6020910101516001600160f81b031916602760f91b145b8015610fb5575082600181518110610f9e57fe5b6020910101516001600160f81b031916600960fb1b145b8015610fe0575082600281518110610fc957fe5b6020910101516001600160f81b031916607b60f81b145b801561100b575082600381518110610ff457fe5b6020910101516001600160f81b031916607160f81b145b156110305760248301518261101f8261110e565b604051602001610f4392919061158d565b816040516020016110419190611560565b604051602081830303815290604052905092915050565b611079846323b872dd60e01b858585604051602401610c269392919061162e565b50505050565b60606110d4826040518060400160405280602081526020017f5361666545524332303a206c6f772d6c6576656c2063616c6c206661696c6564815250856001600160a01b03166111389092919063ffffffff16565b80519091501561075757808060200190518101906110f2919061140f565b6107575760405162461bcd60e51b81526004016101b690611ade565b6060610924826040516020016111249190611611565b60405160208183030381529060405261114f565b606061114784846000856112f9565b949350505050565b6060806040518060400160405280601081526020016f181899199a1a9b1b9c1cb0b131b232b360811b81525090506060835160020260020167ffffffffffffffff8111801561119d57600080fd5b506040519080825280601f01601f1916602001820160405280156111c8576020820181803683370190505b509050600360fc1b816000815181106111dd57fe5b60200101906001600160f81b031916908160001a905350600f60fb1b8160018151811061120657fe5b60200101906001600160f81b031916908160001a90535060005b84518110156112f15782600486838151811061123857fe5b016020015182516001600160f81b031990911690911c60f81c90811061125a57fe5b602001015160f81c60f81b82826002026002018151811061127757fe5b60200101906001600160f81b031916908160001a9053508285828151811061129b57fe5b602091010151815160f89190911c600f169081106112b557fe5b602001015160f81c60f81b8282600202600301815181106112d257fe5b60200101906001600160f81b031916908160001a905350600101611220565b509392505050565b60608247101561131b5760405162461bcd60e51b81526004016101b6906118d6565b61132485610c5d565b6113405760405162461bcd60e51b81526004016101b690611aa7565b60006060866001600160a01b0316858760405161135d9190611544565b60006040518083038185875af1925050503d806000811461139a576040519150601f19603f3d011682016040523d82523d6000602084013e61139f565b606091505b50915091506113af8282866113ba565b979650505050505050565b606083156113c9575081610af1565b8251156113d95782518084602001fd5b8160405162461bcd60e51b81526004016101b69190611798565b600060208284031215611404578081fd5b8135610af181611bd0565b600060208284031215611420578081fd5b81518015158114610af1578182fd5b60008060408385031215611441578081fd5b823561144c81611bd0565b946020939093013593505050565b6000806000806060858703121561146f578182fd5b843561147a81611bd0565b9350602085013567ffffffffffffffff80821115611496578384fd5b9086019061014082890312156114aa578384fd5b909350604086013590808211156114bf578384fd5b818701915087601f8301126114d2578384fd5b8135818111156114e0578485fd5b88602080830285010111156114f3578485fd5b95989497505060200194505050565b600060208284031215611513578081fd5b5051919050565b60008284528282602086013780602084860101526020601f19601f85011685010190509392505050565b60008251611556818460208701611ba4565b9190910192915050565b60008251611572818460208701611ba4565b68556e6b6e6f776e282960b81b920191825250600901919050565b6000835161159f818460208801611ba4565b650a0c2dcd2c6560d31b90830190815283516115c2816006840160208801611ba4565b602960f81b60069290910191820152600701949350505050565b600083516115ee818460208801611ba4565b6508ae4e4dee4560d31b90830190815283516115c2816006840160208801611ba4565b90815260200190565b6001600160a01b0391909116815260200190565b6001600160a01b039384168152919092166020820152604081019190915260600190565b6001600160a01b03929092168252602082015260400190565b6001600160a01b039788168152602081019690965260408601949094526060850192909252608084015260a083015290911660c082015260e00190565b602080825281810183905260009060408084018583028501820187855b8881101561176b57878303603f190184528135368b9003607e190181126116ea578788fd5b8a018035845286810135878501528581013586850152608060608083013536849003601e1901811261171a578a8bfd5b8301803567ffffffffffffffff811115611732578b8cfd5b803603851315611740578b8cfd5b8383890152611754848901828d850161151a565b988b019897505050938801935050506001016116c5565b509098975050505050505050565b901515815260200190565b60006020825261114760208301848661151a565b60006020825282518060208401526117b7816040850160208701611ba4565b601f01601f19169190910160400192915050565b602080825260129082015271086d8c2d2da40e8ded6cadc40d2e6408aa8960731b604082015260600190565b60208082526026908201527f4f776e61626c653a206e6577206f776e657220697320746865207a65726f206160408201526564647265737360d01b606082015260800190565b6020808252601b908201527f536166654d6174683a206164646974696f6e206f766572666c6f770000000000604082015260600190565b602080825260119082015270496e76616c6964206d73672e76616c756560781b604082015260600190565b6020808252601e908201527f536166654d6174683a207375627472616374696f6e206f766572666c6f770000604082015260600190565b60208082526026908201527f416464726573733a20696e73756666696369656e742062616c616e636520666f6040820152651c8818d85b1b60d21b606082015260800190565b60208082526010908201526f14185d5cd8589b194e881c185d5cd95960821b604082015260600190565b6020808252602e908201527f496e697469616c697a61626c653a20636f6e747261637420697320616c72656160408201526d191e481a5b9a5d1a585b1a5e995960921b606082015260800190565b6020808252601b908201527f52657475726e20616d6f756e74206973206e6f7420656e6f7567680000000000604082015260600190565b6020808252601a908201527f4d696e2072657475726e2073686f756c64206e6f742062652030000000000000604082015260600190565b60208082526021908201527f536166654d6174683a206d756c7469706c69636174696f6e206f766572666c6f6040820152607760f81b606082015260800190565b6020808252818101527f4f776e61626c653a2063616c6c6572206973206e6f7420746865206f776e6572604082015260600190565b60208082526015908201527424b73b30b634b2103932bb32b93a103932b0b9b7b760591b604082015260600190565b6020808252601d908201527f416464726573733a2063616c6c20746f206e6f6e2d636f6e7472616374000000604082015260600190565b6020808252602a908201527f5361666545524332303a204552433230206f7065726174696f6e20646964206e6040820152691bdd081cdd58d8d9595960b21b606082015260800190565b60208082526016908201527510d85b1b0819185d18481cda1bdd5b1908195e1a5cdd60521b604082015260600190565b6000808335601e19843603018112611b6e578283fd5b83018035915067ffffffffffffffff821115611b88578283fd5b602001915036819003821315611b9d57600080fd5b9250929050565b60005b83811015611bbf578181015183820152602001611ba7565b838111156110795750506000910152565b6001600160a01b03811681146102f057600080fdfea264697066735822122062db60ae4d08f8315c60a20f1a9c105bd4a5e3a2fab9aef76b0b971baee15cee64736f6c634300060c0033",
  "devdoc": {
    "kind": "dev",
    "methods": {
      "owner()": {
        "details": "Returns the address of the current owner."
      },
      "paused()": {
        "details": "Returns true if the contract is paused, and false otherwise."
      },
      "renounceOwnership()": {
        "details": "Leaves the contract without owner. It will not be possible to call `onlyOwner` functions anymore. Can only be called by the current owner. NOTE: Renouncing ownership will leave the contract without an owner, thereby removing any functionality that is only available to the owner."
      },
      "transferOwnership(address)": {
        "details": "Transfers ownership of the contract to a new account (`newOwner`). Can only be called by the current owner."
      }
    },
    "version": 1
  },
  "userdoc": {
    "kind": "user",
    "methods": {},
    "version": 1
  },
  "storageLayout": {
    "storage": [
      {
        "astId": 137,
        "contract": "contracts/OpenOceanExchange.sol:OpenOceanExchange",
        "label": "_initialized",
        "offset": 0,
        "slot": "0",
        "type": "t_bool"
      },
      {
        "astId": 140,
        "contract": "contracts/OpenOceanExchange.sol:OpenOceanExchange",
        "label": "_initializing",
        "offset": 1,
        "slot": "0",
        "type": "t_bool"
      },
      {
        "astId": 484,
        "contract": "contracts/OpenOceanExchange.sol:OpenOceanExchange",
        "label": "__gap",
        "offset": 0,
        "slot": "1",
        "type": "t_array(t_uint256)50_storage"
      },
      {
        "astId": 10,
        "contract": "contracts/OpenOceanExchange.sol:OpenOceanExchange",
        "label": "_owner",
        "offset": 0,
        "slot": "51",
        "type": "t_address"
      },
      {
        "astId": 129,
        "contract": "contracts/OpenOceanExchange.sol:OpenOceanExchange",
        "label": "__gap",
        "offset": 0,
        "slot": "52",
        "type": "t_array(t_uint256)49_storage"
      },
      {
        "astId": 506,
        "contract": "contracts/OpenOceanExchange.sol:OpenOceanExchange",
        "label": "_paused",
        "offset": 0,
        "slot": "101",
        "type": "t_bool"
      },
      {
        "astId": 597,
        "contract": "contracts/OpenOceanExchange.sol:OpenOceanExchange",
        "label": "__gap",
        "offset": 0,
        "slot": "102",
        "type": "t_array(t_uint256)49_storage"
      }
    ],
    "types": {
      "t_address": {
        "encoding": "inplace",
        "label": "address",
        "numberOfBytes": "20"
      },
      "t_array(t_uint256)49_storage": {
        "base": "t_uint256",
        "encoding": "inplace",
        "label": "uint256[49]",
        "numberOfBytes": "1568"
      },
      "t_array(t_uint256)50_storage": {
        "base": "t_uint256",
        "encoding": "inplace",
        "label": "uint256[50]",
        "numberOfBytes": "1600"
      },
      "t_bool": {
        "encoding": "inplace",
        "label": "bool",
        "numberOfBytes": "1"
      },
      "t_uint256": {
        "encoding": "inplace",
        "label": "uint256",
        "numberOfBytes": "32"
      }
    }
  }
}