{
  "address": "0x8C7Ba8F245aEF3216698087461e05B85483F791f",
  "abi": [
    {
      "inputs": [
        {
          "internalType": "address",
          "name": "pool",
          "type": "address"
        },
        {
          "internalType": "contract IERC20",
          "name": "from",
          "type": "address"
        },
        {
          "internalType": "contract IERC20",
          "name": "to",
          "type": "address"
        },
        {
          "internalType": "address",
          "name": "target",
          "type": "address"
        }
      ],
      "name": "dmmSwap",
      "outputs": [],
      "stateMutability": "nonpayable",
      "type": "function"
    },
    {
      "inputs": [
        {
          "components": [
            {
              "internalType": "uint256",
              "name": "target",
              "type": "uint256"
            },
            {
              "internalType": "uint256",
              "name": "gasLimit",
              "type": "uint256"
            },
            {
              "internalType": "uint256",
              "name": "value",
              "type": "uint256"
            },
            {
              "internalType": "bytes",
              "name": "data",
              "type": "bytes"
            }
          ],
          "internalType": "struct IOpenOceanCaller.CallDescription",
          "name": "desc",
          "type": "tuple"
        }
      ],
      "name": "makeCall",
      "outputs": [],
      "stateMutability": "nonpayable",
      "type": "function"
    },
    {
      "inputs": [
        {
          "components": [
            {
              "internalType": "uint256",
              "name": "target",
              "type": "uint256"
            },
            {
              "internalType": "uint256",
              "name": "gasLimit",
              "type": "uint256"
            },
            {
              "internalType": "uint256",
              "name": "value",
              "type": "uint256"
            },
            {
              "internalType": "bytes",
              "name": "data",
              "type": "bytes"
            }
          ],
          "internalType": "struct IOpenOceanCaller.CallDescription[]",
          "name": "desc",
          "type": "tuple[]"
        }
      ],
      "name": "makeCalls",
      "outputs": [],
      "stateMutability": "payable",
      "type": "function"
    },
    {
      "inputs": [
        {
          "internalType": "contract IERC20",
          "name": "token",
          "type": "address"
        },
        {
          "internalType": "uint256",
          "name": "distribution",
          "type": "uint256"
        },
        {
          "components": [
            {
              "internalType": "uint256",
              "name": "target",
              "type": "uint256"
            },
            {
              "internalType": "uint256",
              "name": "gasLimit",
              "type": "uint256"
            },
            {
              "internalType": "uint256",
              "name": "value",
              "type": "uint256"
            },
            {
              "internalType": "bytes",
              "name": "data",
              "type": "bytes"
            }
          ],
          "internalType": "struct IOpenOceanCaller.CallDescription[]",
          "name": "descs",
          "type": "tuple[]"
        },
        {
          "internalType": "uint256[]",
          "name": "amountBiases",
          "type": "uint256[]"
        }
      ],
      "name": "multiDistributionCall",
      "outputs": [],
      "stateMutability": "nonpayable",
      "type": "function"
    },
    {
      "inputs": [
        {
          "internalType": "contract IERC20",
          "name": "token",
          "type": "address"
        },
        {
          "internalType": "address",
          "name": "spender",
          "type": "address"
        },
        {
          "internalType": "uint256",
          "name": "amount",
          "type": "uint256"
        }
      ],
      "name": "safeApprove",
      "outputs": [],
      "stateMutability": "nonpayable",
      "type": "function"
    },
    {
      "inputs": [
        {
          "internalType": "contract IERC20",
          "name": "token",
          "type": "address"
        },
        {
          "internalType": "address payable",
          "name": "target",
          "type": "address"
        },
        {
          "internalType": "uint256",
          "name": "amount",
          "type": "uint256"
        }
      ],
      "name": "safeTransfer",
      "outputs": [],
      "stateMutability": "nonpayable",
      "type": "function"
    },
    {
      "inputs": [
        {
          "internalType": "contract IERC20",
          "name": "token",
          "type": "address"
        },
        {
          "internalType": "uint256",
          "name": "distribution",
          "type": "uint256"
        },
        {
          "components": [
            {
              "internalType": "uint256",
              "name": "target",
              "type": "uint256"
            },
            {
              "internalType": "uint256",
              "name": "gasLimit",
              "type": "uint256"
            },
            {
              "internalType": "uint256",
              "name": "value",
              "type": "uint256"
            },
            {
              "internalType": "bytes",
              "name": "data",
              "type": "bytes"
            }
          ],
          "internalType": "struct IOpenOceanCaller.CallDescription",
          "name": "desc",
          "type": "tuple"
        },
        {
          "internalType": "uint256",
          "name": "amountBias",
          "type": "uint256"
        }
      ],
      "name": "singleDistributionCall",
      "outputs": [],
      "stateMutability": "nonpayable",
      "type": "function"
    },
    {
      "inputs": [
        {
          "internalType": "uint256",
          "name": "pool",
          "type": "uint256"
        },
        {
          "internalType": "address",
          "name": "srcToken",
          "type": "address"
        },
        {
          "internalType": "address",
          "name": "receiver",
          "type": "address"
        }
      ],
      "name": "uniswapV2Swap",
      "outputs": [],
      "stateMutability": "nonpayable",
      "type": "function"
    },
    {
      "inputs": [
        {
          "internalType": "address",
          "name": "pool",
          "type": "address"
        },
        {
          "internalType": "bool",
          "name": "zeroForOne",
          "type": "bool"
        },
        {
          "internalType": "int256",
          "name": "amount",
          "type": "int256"
        },
        {
          "internalType": "address",
          "name": "recipient",
          "type": "address"
        },
        {
          "internalType": "bytes",
          "name": "path",
          "type": "bytes"
        }
      ],
      "name": "uniswapV3Swap",
      "outputs": [],
      "stateMutability": "nonpayable",
      "type": "function"
    },
    {
      "inputs": [
        {
          "internalType": "int256",
          "name": "amount0Delta",
          "type": "int256"
        },
        {
          "internalType": "int256",
          "name": "amount1Delta",
          "type": "int256"
        },
        {
          "internalType": "bytes",
          "name": "callback",
          "type": "bytes"
        }
      ],
      "name": "uniswapV3SwapCallback",
      "outputs": [],
      "stateMutability": "nonpayable",
      "type": "function"
    },
    {
      "stateMutability": "payable",
      "type": "receive"
    }
  ],
  "transactionHash": "0xe6543d75794b19efbf3f7141c20671c810d201e65bce6ce8fb4181ddce305ece",
  "args": [],
  "solcInputHash": "3b745531cee128e94556884f3aaa8537",
  "bytecode": "0x608060405234801561001057600080fd5b50612a4b806100206000396000f3fe6080604052600436106100955760003560e01c8063cac460ee11610059578063cac460ee14610141578063d1660f9914610161578063e5b07cdb14610181578063eb5625d9146101a1578063fa461e33146101c1576100a9565b80630c7e1209146100ae57806351a74316146100ce5780639f865422146100ee578063a8920d2b1461010e578063aa37e8aa14610121576100a9565b366100a957333214156100a757600080fd5b005b600080fd5b3480156100ba57600080fd5b506100a76100c9366004612015565b6101e1565b3480156100da57600080fd5b506100a76100e9366004611e73565b61021f565b3480156100fa57600080fd5b506100a7610109366004611f44565b6103ce565b6100a761011c366004611de5565b6104ba565b34801561012d57600080fd5b506100a761013c366004611d8a565b610568565b34801561014d57600080fd5b506100a761015c366004612194565b61079d565b34801561016d57600080fd5b506100a761017c366004611e33565b6109b9565b34801561018d57600080fd5b506100a761019c366004611d08565b6109cd565b3480156101ad57600080fd5b506100a76101bc366004611e33565b610af0565b3480156101cd57600080fd5b506100a76101dc366004611fc5565b610b04565b600060606101ee83610c1d565b915091508161021a578060405162461bcd60e51b815260040161021191906123ae565b60405180910390fd5b505050565b80518251146102405760405162461bcd60e51b815260040161021190612711565b60006102556001600160a01b03861630610dc8565b9050600081116102775760405162461bcd60e51b8152600401610211906123c1565b60008061028386610e6e565b9150915060006102b8826001600160801b03166102b2856001600160801b031687610eb590919063ffffffff16565b90610eef565b905060005b86518110156103c3576102d8896001600160a01b0316610f21565b80156102fc57508681815181106102eb57fe5b602002602001015160000151600014155b1561031f578187828151811061030e57fe5b602002602001015160400181815250505b600086828151811061032d57fe5b60200260200101511115610376576103768287838151811061034b57fe5b602002602001015189848151811061035f57fe5b6020026020010151610f6c9092919063ffffffff16565b6000606061039689848151811061038957fe5b6020026020010151610c1d565b91509150816103b9578060405162461bcd60e51b815260040161021191906123ae565b50506001016102bd565b505050505050505050565b60006103e36001600160a01b03861630610dc8565b90506000806103f186610e6e565b915091506000610420826001600160801b03166102b2856001600160801b031687610eb590919063ffffffff16565b9050600081116104425760405162461bcd60e51b8152600401610211906123c1565b610454886001600160a01b0316610f21565b80156104605750855115155b1561046d57604086018190525b841561047e5761047e868287610f6c565b6000606061048b88610c1d565b91509150816104ae578060405162461bcd60e51b815260040161021191906123ae565b50505050505050505050565b60008151116104db5760405162461bcd60e51b815260040161021190612406565b60005b815181101561056457306001600160a01b0316630c7e120983838151811061050257fe5b60200260200101516040518263ffffffff1660e01b815260040161052691906128a8565b600060405180830381600087803b15801561054057600080fd5b505af1158015610554573d6000803e3d6000fd5b5050600190920191506104de9050565b5050565b6000826001600160a01b0316846001600160a01b03161190506000806000806000896001600160a01b031663d66940276040518163ffffffff1660e01b815260040160a06040518083038186803b1580156105c257600080fd5b505afa1580156105d6573d6000803e3d6000fd5b505050506040513d601f19601f820116820180604052508101906105fa91906120be565b9450945094509450945085610610578484610613565b83855b909550935085610624578282610627565b81835b809350819450505060006106c0866001600160701b03168b6001600160a01b03166370a082318e6040518263ffffffff1660e01b815260040161066a9190612304565b60206040518083038186803b15801561068257600080fd5b505afa158015610696573d6000803e3d6000fd5b505050506040513d601f19601f820116820180604052508101906106ba919061217c565b90610fa6565b905060006106e2856001600160701b0316856001600160701b03168486610fce565b9050600080896106f4576000836106f8565b8260005b90925090506001600160a01b038e1663022c0d9f83838e60006040519080825280601f01601f19166020018201604052801561073b576020820181803683370190505b506040518563ffffffff1660e01b815260040161075b9493929190612932565b600060405180830381600087803b15801561077557600080fd5b505af1158015610789573d6000803e3d6000fd5b505050505050505050505050505050505050565b60006001600160a01b03841690506000600160ff1b8516600014159050600080600080856001600160a01b0316630902f1ac6040518163ffffffff1660e01b815260040160606040518083038186803b1580156107f957600080fd5b505afa15801561080d573d6000803e3d6000fd5b505050506040513d601f19601f820116820180604052508101906108319190612128565b509150915084610842578181610845565b80825b6040516370a0823160e01b81526001600160701b039283169650911693506000925061088d915084906001600160a01b038a16906370a082319061066a908a90600401612304565b905060006108aa84848460a063ffffffff60a01b8e16901c611033565b9050600080866108bc576000836108c0565b8260005b91509150600160fd1b8b1660001415610949576040805160008152602081019182905263022c0d9f60e01b9091526001600160a01b0389169063022c0d9f9061091290859085908e9060248101612932565b600060405180830381600087803b15801561092c57600080fd5b505af1158015610940573d6000803e3d6000fd5b505050506109ac565b6040516336cd320560e11b81526001600160a01b03891690636d9a640a9061097990859085908e90600401612913565b600060405180830381600087803b15801561099357600080fd5b505af11580156109a7573d6000803e3d6000fd5b505050505b5050505050505050505050565b61021a6001600160a01b038416838361106a565b6000856109ee5773fffd8963efd1fc6a506488495d951d5263988d256109f5565b6401000276a45b90506109ff611b52565b6040805160606020601f8701819004028201810183529181018581529091829190879087908190850183828082843760009201919091525050509082525060209081018890526040519192506001600160a01b038a169163128acb089188918b918b918891610a70918991016128e1565b6040516020818303038152906040526040518663ffffffff1660e01b8152600401610a9f95949392919061235a565b6040805180830381600087803b158015610ab857600080fd5b505af1158015610acc573d6000803e3d6000fd5b505050506040513d601f19601f820116820180604052508101906104ae9190611fa2565b61021a6001600160a01b03841683836110ce565b6000841380610b135750600083135b610b2f5760405162461bcd60e51b81526004016102119061278a565b610b37611b52565b610b4382840184612047565b90506000806000610b5784600001516111d3565b9250925092506000610b72610b6d858585611204565b611266565b9050336001600160a01b03821614610b9c5760405162461bcd60e51b8152600401610211906126da565b60008060008b13610bc257856001600160a01b0316856001600160a01b0316108a610bd9565b846001600160a01b0316866001600160a01b0316108b5b91509150818015610bed5750866020015181145b610c095760405162461bcd60e51b8152600401610211906127b4565b6109ac6001600160a01b038716338361132a565b60006060610c2e8360600151611380565b15610c4b5760405162461bcd60e51b8152600401610211906125dd565b82516001600160a01b038116610c5e5750305b8360400151816001600160a01b0316311015610c8c5760405162461bcd60e51b815260040161021190612526565b60006060600086602001511115610d1257826001600160a01b031686604001518760200151908860600151604051610cc491906121f6565b600060405180830381858888f193505050503d8060008114610d02576040519150601f19603f3d011682016040523d82523d6000602084013e610d07565b606091505b509092509050610d7c565b826001600160a01b031686604001518760600151604051610d3391906121f6565b60006040518083038185875af1925050503d8060008114610d70576040519150601f19603f3d011682016040523d82523d6000602084013e610d75565b606091505b5090925090505b81610dbc826040518060400160405280602081526020017f4f70656e4f6365616e2065787465726e616c2063616c6c206661696c65643a20815250611438565b94509450505050915091565b6000610dd383610f21565b15610de957506001600160a01b03811631610e68565b6040516370a0823160e01b81526001600160a01b038416906370a0823190610e15908590600401612304565b60206040518083038186803b158015610e2d57600080fd5b505afa158015610e41573d6000803e3d6000fd5b505050506040513d601f19601f82011682018060405250810190610e65919061217c565b90505b92915050565b600080608083901c838115801590610e8f57506000816001600160801b0316115b610eab5760405162461bcd60e51b815260040161021190612711565b9092509050915091565b600082610ec457506000610e68565b82820282848281610ed157fe5b0414610e655760405162461bcd60e51b81526004016102119061260d565b6000808211610f105760405162461bcd60e51b815260040161021190612577565b818381610f1957fe5b049392505050565b60006001600160a01b03821673eeeeeeeeeeeeeeeeeeeeeeeeeeeeeeeeeeeeeeee1480610f5857506001600160a01b038216611010145b80610e685750506001600160a01b03161590565b606082604051602001610f7f91906122fb565b60408051601f19818403018152919052606094909401516020948501519201909301525050565b600082821115610fc85760405162461bcd60e51b8152600401610211906124a9565b50900390565b600080610ff1670de0b6b3a76400006102b2610fea8287610fa6565b8790610eb5565b90506000610fff8287610eb5565b9050600061100d8884611646565b905080156110245761101f8282610eef565b611027565b60005b98975050505050505050565b6000806110408484610eb5565b9050600061104e8287610eb5565b9050600061100d836110648a633b9aca00610eb5565b90611646565b801561021a5761107983610f21565b156110ba576040516001600160a01b0383169082156108fc029083906000818181858888f193505050501580156110b4573d6000803e3d6000fd5b5061021a565b61021a6001600160a01b038416838361132a565b6110d783610f21565b156110f45760405162461bcd60e51b8152600401610211906125ae565b806111135761110e6001600160a01b03841683600061166b565b61021a565b604051636eb1769f60e11b81526000906001600160a01b0385169063dd62ed3e906111449030908790600401612318565b60206040518083038186803b15801561115c57600080fd5b505afa158015611170573d6000803e3d6000fd5b505050506040513d601f19601f82011682018060405250810190611194919061217c565b9050818110156111cd5780156111b9576111b96001600160a01b03851684600061166b565b6111cd6001600160a01b038516848461166b565b50505050565b600080806111e1848261172e565b92506111ee846014611787565b90506111fb84601761172e565b91509193909250565b61120c611b6c565b826001600160a01b0316846001600160a01b0316111561122a579192915b6040518060600160405280856001600160a01b03168152602001846001600160a01b031681526020018362ffffff1681525090505b9392505050565b600081602001516001600160a01b031682600001516001600160a01b03161061128e57600080fd5b731f98431c8ad98523631ae4a59f267346ea31f9848260000151836020015184604001516040516020016112c493929190612332565b60408051601f1981840301815290829052805160209182012061130c939290917fe34f199b19b2b4f47f68442619d555527d244f78a3297ea89325f843f87b8b5491016122c3565b60408051601f19818403018152919052805160209091012092915050565b61021a8363a9059cbb60e01b8484604051602401611349929190612395565b60408051601f198184030181529190526020810180516001600160e01b03166001600160e01b0319909316929092179091526117d9565b6000815160641480156113b257508160008151811061139b57fe5b6020910101516001600160f81b031916602360f81b145b80156113dd5750816001815181106113c657fe5b6020910101516001600160f81b031916601760fb1b145b80156114085750816002815181106113f157fe5b6020910101516001600160f81b031916603960f91b145b8015610e6857508160038151811061141c57fe5b6020910101516001600160f81b03191660dd60f81b1492915050565b6060604483511015801561146b57508260008151811061145457fe5b6020910101516001600160f81b031916600160fb1b145b801561149657508260018151811061147f57fe5b6020910101516001600160f81b03191660c360f81b145b80156114c15750826002815181106114aa57fe5b6020910101516001600160f81b031916607960f81b145b80156114ec5750826003815181106114d557fe5b6020910101516001600160f81b031916600560fd1b145b1561154857606060448401905080516044018451101561151e5760405162461bcd60e51b8152600401610211906126ab565b828160405160200161153192919061228e565b604051602081830303815290604052915050610e68565b8251602414801561157857508260008151811061156157fe5b6020910101516001600160f81b031916602760f91b145b80156115a357508260018151811061158c57fe5b6020910101516001600160f81b031916600960fb1b145b80156115ce5750826002815181106115b757fe5b6020910101516001600160f81b031916607b60f81b145b80156115f95750826003815181106115e257fe5b6020910101516001600160f81b031916607160f81b145b1561161e5760248301518261160d82611868565b60405160200161153192919061223f565b8160405160200161162f9190612212565b604051602081830303815290604052905092915050565b600082820183811015610e655760405162461bcd60e51b815260040161021190612447565b8015806116f35750604051636eb1769f60e11b81526001600160a01b0384169063dd62ed3e906116a19030908690600401612318565b60206040518083038186803b1580156116b957600080fd5b505afa1580156116cd573d6000803e3d6000fd5b505050506040513d601f19601f820116820180604052508101906116f1919061217c565b155b61170f5760405162461bcd60e51b815260040161021190612826565b61021a8363095ea7b360e01b8484604051602401611349929190612395565b6000818260140110156117535760405162461bcd60e51b81526004016102119061287c565b81601401835110156117775760405162461bcd60e51b81526004016102119061267c565b500160200151600160601b900490565b6000818260030110156117ac5760405162461bcd60e51b81526004016102119061247e565b81600301835110156117d05760405162461bcd60e51b81526004016102119061264e565b50016003015190565b606061182e826040518060400160405280602081526020017f5361666545524332303a206c6f772d6c6576656c2063616c6c206661696c6564815250856001600160a01b03166118929092919063ffffffff16565b80519091501561021a578080602001905181019061184c9190611e17565b61021a5760405162461bcd60e51b8152600401610211906127dc565b6060610e688260405160200161187e91906122fb565b6040516020818303038152906040526118a9565b60606118a18484600085611a52565b949350505050565b6060806040518060400160405280601081526020016f181899199a1a9b1b9c1cb0b131b232b360811b8152509050606083516002026002016001600160401b03811180156118f657600080fd5b506040519080825280601f01601f191660200182016040528015611921576020820181803683370190505b509050600360fc1b8160008151811061193657fe5b60200101906001600160f81b031916908160001a905350600f60fb1b8160018151811061195f57fe5b60200101906001600160f81b031916908160001a90535060005b8451811015611a4a5782600486838151811061199157fe5b016020015182516001600160f81b031990911690911c60f81c9081106119b357fe5b602001015160f81c60f81b8282600202600201815181106119d057fe5b60200101906001600160f81b031916908160001a905350828582815181106119f457fe5b602091010151815160f89190911c600f16908110611a0e57fe5b602001015160f81c60f81b828260020260030181518110611a2b57fe5b60200101906001600160f81b031916908160001a905350600101611979565b509392505050565b606082471015611a745760405162461bcd60e51b8152600401610211906124e0565b611a7d85611b13565b611a995760405162461bcd60e51b815260040161021190612753565b60006060866001600160a01b03168587604051611ab691906121f6565b60006040518083038185875af1925050503d8060008114611af3576040519150601f19603f3d011682016040523d82523d6000602084013e611af8565b606091505b5091509150611b08828286611b19565b979650505050505050565b3b151590565b60608315611b2857508161125f565b825115611b385782518084602001fd5b8160405162461bcd60e51b815260040161021191906123ae565b604051806040016040528060608152602001600081525090565b604080516060810182526000808252602082018190529181019190915290565b600082601f830112611b9c578081fd5b8135611baf611baa8261298f565b612969565b818152915060208083019084810160005b84811015611be957611bd7888484358a0101611ca2565b84529282019290820190600101611bc0565b505050505092915050565b60008083601f840112611c05578182fd5b5081356001600160401b03811115611c1b578182fd5b602083019150836020828501011115611c3357600080fd5b9250929050565b600082601f830112611c4a578081fd5b81356001600160401b03811115611c5f578182fd5b611c72601f8201601f1916602001612969565b9150808252836020828501011115611c8957600080fd5b8060208401602084013760009082016020015292915050565b600060808284031215611cb3578081fd5b611cbd6080612969565b905081358152602082013560208201526040820135604082015260608201356001600160401b03811115611cf057600080fd5b611cfc84828501611c3a565b60608301525092915050565b60008060008060008060a08789031215611d20578182fd5b8635611d2b816129da565b95506020870135611d3b816129f2565b9450604087013593506060870135611d52816129da565b925060808701356001600160401b03811115611d6c578283fd5b611d7889828a01611bf4565b979a9699509497509295939492505050565b60008060008060808587031215611d9f578384fd5b8435611daa816129da565b93506020850135611dba816129da565b92506040850135611dca816129da565b91506060850135611dda816129da565b939692955090935050565b600060208284031215611df6578081fd5b81356001600160401b03811115611e0b578182fd5b6118a184828501611b8c565b600060208284031215611e28578081fd5b8151610e65816129f2565b600080600060608486031215611e47578283fd5b8335611e52816129da565b92506020840135611e62816129da565b929592945050506040919091013590565b60008060008060808587031215611e88578182fd5b8435611e93816129da565b9350602085810135935060408601356001600160401b0380821115611eb6578485fd5b611ec289838a01611b8c565b94506060880135915080821115611ed7578384fd5b508601601f81018813611ee8578283fd5b8035611ef6611baa8261298f565b81815283810190838501858402850186018c1015611f12578687fd5b8694505b83851015611f34578035835260019490940193918501918501611f16565b50979a9699509497505050505050565b60008060008060808587031215611f59578182fd5b8435611f64816129da565b93506020850135925060408501356001600160401b03811115611f85578283fd5b611f9187828801611ca2565b949793965093946060013593505050565b60008060408385031215611fb4578182fd5b505080516020909101519092909150565b60008060008060608587031215611fda578182fd5b843593506020850135925060408501356001600160401b03811115611ffd578283fd5b61200987828801611bf4565b95989497509550505050565b600060208284031215612026578081fd5b81356001600160401b0381111561203b578182fd5b6118a184828501611ca2565b600060208284031215612058578081fd5b81356001600160401b038082111561206e578283fd5b9083019060408286031215612081578283fd5b61208b6040612969565b823582811115612099578485fd5b6120a587828601611c3a565b8252506020830135602082015280935050505092915050565b600080600080600060a086880312156120d5578283fd5b85516120e081612a00565b60208701519095506120f181612a00565b604087015190945061210281612a00565b606087015190935061211381612a00565b80925050608086015190509295509295909350565b60008060006060848603121561213c578081fd5b835161214781612a00565b602085015190935061215881612a00565b604085015190925063ffffffff81168114612171578182fd5b809150509250925092565b60006020828403121561218d578081fd5b5051919050565b6000806000606084860312156121a8578081fd5b8335925060208401356121ba816129da565b91506040840135612171816129da565b600081518084526121e28160208601602086016129ae565b601f01601f19169290920160200192915050565b600082516122088184602087016129ae565b9190910192915050565b600082516122248184602087016129ae565b68556e6b6e6f776e282960b81b920191825250600901919050565b600083516122518184602088016129ae565b650a0c2dcd2c6560d31b90830190815283516122748160068401602088016129ae565b602960f81b60069290910191820152600701949350505050565b600083516122a08184602088016129ae565b6508ae4e4dee4560d31b90830190815283516122748160068401602088016129ae565b6001600160f81b0319815260609390931b6bffffffffffffffffffffffff191660018401526015830191909152603582015260550190565b90815260200190565b6001600160a01b0391909116815260200190565b6001600160a01b0392831681529116602082015260400190565b6001600160a01b03938416815291909216602082015262ffffff909116604082015260600190565b6001600160a01b0386811682528515156020830152604082018590528316606082015260a060808201819052600090611b08908301846121ca565b6001600160a01b03929092168252602082015260400190565b60006020825261125f60208301846121ca565b60208082526025908201527f4f70656e4f6365616e3a20496e73756666696369656e7420746f6b656e2062616040820152646c616e636560d81b606082015260800190565b60208082526021908201527f4f70656e4f6365616e3a20496e76616c69642063616c6c20706172616d6574656040820152603960f91b606082015260800190565b6020808252601b908201527f536166654d6174683a206164646974696f6e206f766572666c6f770000000000604082015260600190565b602080825260119082015270746f55696e7432345f6f766572666c6f7760781b604082015260600190565b6020808252601e908201527f536166654d6174683a207375627472616374696f6e206f766572666c6f770000604082015260600190565b60208082526026908201527f416464726573733a20696e73756666696369656e742062616c616e636520666f6040820152651c8818d85b1b60d21b606082015260800190565b60208082526031908201527f4f70656e4f6365616e3a20496e73756666696369656e742062616c616e636520604082015270199bdc88195e1d195c9b985b0818d85b1b607a1b606082015260800190565b6020808252601a908201527f536166654d6174683a206469766973696f6e206279207a65726f000000000000604082015260600190565b602080825260159082015274082e0e0e4deecca40c6c2d8d8cac840dedc408aa89605b1b604082015260600190565b60208082526016908201527513dc195b93d8d9585b8e88139bdd08185b1b1bddd95960521b604082015260600190565b60208082526021908201527f536166654d6174683a206d756c7469706c69636174696f6e206f766572666c6f6040820152607760f81b606082015260800190565b602080825260149082015273746f55696e7432345f6f75744f66426f756e647360601b604082015260600190565b602080825260159082015274746f416464726573735f6f75744f66426f756e647360581b604082015260600190565b60208082526015908201527424b73b30b634b2103932bb32b93a103932b0b9b7b760591b604082015260600190565b60208082526018908201527f4f70656e4f6365616e3a204163636573732044656e6965640000000000000000604082015260600190565b60208082526022908201527f4f70656e4f6365616e3a20496e76616c69642063616c6c20706172616d657465604082015261727360f01b606082015260800190565b6020808252601d908201527f416464726573733a2063616c6c20746f206e6f6e2d636f6e7472616374000000604082015260600190565b60208082526010908201526f556e697377617056333a2044454c544160801b604082015260600190565b6020808252600e908201526d556e697377617056333a2054494160901b604082015260600190565b6020808252602a908201527f5361666545524332303a204552433230206f7065726174696f6e20646964206e6040820152691bdd081cdd58d8d9595960b21b606082015260800190565b60208082526036908201527f5361666545524332303a20617070726f76652066726f6d206e6f6e2d7a65726f60408201527520746f206e6f6e2d7a65726f20616c6c6f77616e636560501b606082015260800190565b602080825260129082015271746f416464726573735f6f766572666c6f7760701b604082015260600190565b60006020825282516020830152602083015160408301526040830151606083015260608301516080808401526118a160a08401826121ca565b6000602082528251604060208401526128fd60608401826121ca565b9050602084015160408401528091505092915050565b92835260208301919091526001600160a01b0316604082015260600190565b600085825284602083015260018060a01b03841660408301526080606083015261295f60808301846121ca565b9695505050505050565b6040518181016001600160401b038111828210171561298757600080fd5b604052919050565b60006001600160401b038211156129a4578081fd5b5060209081020190565b60005b838110156129c95781810151838201526020016129b1565b838111156111cd5750506000910152565b6001600160a01b03811681146129ef57600080fd5b50565b80151581146129ef57600080fd5b6001600160701b03811681146129ef57600080fdfea26469706673582212207964bb5c6a9cda40713017e4699d2c3a044c4046306e2491b5cdf3d0d59e769b64736f6c634300060c0033",
  "devdoc": {
    "kind": "dev",
    "methods": {},
    "version": 1
  },
  "userdoc": {
    "kind": "user",
    "methods": {},
    "version": 1
  },
  "storageLayout": {
    "storage": [],
    "types": null
  }
}