{
  "address": "0x9F92b2706c643ae6FDF2e9ca472f0E48497385f1",
  "abi": [
    {
      "inputs": [
        {
          "internalType": "address",
          "name": "vault",
          "type": "address"
        },
        {
          "internalType": "bytes32",
          "name": "poolId",
          "type": "bytes32"
        },
        {
          "internalType": "address",
          "name": "pool",
          "type": "address"
        }
      ],
      "name": "balancerV2StablePoolState",
      "outputs": [
        {
          "internalType": "contract IERC20[]",
          "name": "tokens",
          "type": "address[]"
        },
        {
          "internalType": "uint256[]",
          "name": "balances",
          "type": "uint256[]"
        },
        {
          "internalType": "uint256",
          "name": "totalSupply",
          "type": "uint256"
        },
        {
          "internalType": "uint256",
          "name": "amp",
          "type": "uint256"
        },
        {
          "internalType": "uint256",
          "name": "swapFee",
          "type": "uint256"
        }
      ],
      "stateMutability": "view",
      "type": "function"
    },
    {
      "inputs": [
        {
          "internalType": "address",
          "name": "vault",
          "type": "address"
        },
        {
          "internalType": "bytes32",
          "name": "poolId",
          "type": "bytes32"
        },
        {
          "internalType": "address",
          "name": "pool",
          "type": "address"
        }
      ],
      "name": "balancerV2WeightedPoolState",
      "outputs": [
        {
          "internalType": "contract IERC20[]",
          "name": "tokens",
          "type": "address[]"
        },
        {
          "internalType": "uint256[]",
          "name": "balances",
          "type": "uint256[]"
        },
        {
          "internalType": "uint256",
          "name": "totalSupply",
          "type": "uint256"
        },
        {
          "internalType": "uint256[]",
          "name": "weights",
          "type": "uint256[]"
        },
        {
          "internalType": "uint256",
          "name": "swapFee",
          "type": "uint256"
        }
      ],
      "stateMutability": "view",
      "type": "function"
    },
    {
      "inputs": [
        {
          "components": [
            {
              "internalType": "address",
              "name": "pool",
              "type": "address"
            },
            {
              "internalType": "uint8",
              "name": "nCoins",
              "type": "uint8"
            },
            {
              "internalType": "uint8",
              "name": "version",
              "type": "uint8"
            },
            {
              "internalType": "uint256",
              "name": "underlyingDecimals",
              "type": "uint256"
            },
            {
              "internalType": "address",
              "name": "rateCallee",
              "type": "address"
            },
            {
              "internalType": "bytes",
              "name": "rateCalldata",
              "type": "bytes"
            }
          ],
          "internalType": "struct ICurveState.CurvePoolStateQuery",
          "name": "query",
          "type": "tuple"
        }
      ],
      "name": "curvePoolState",
      "outputs": [
        {
          "internalType": "uint256[]",
          "name": "balances",
          "type": "uint256[]"
        },
        {
          "internalType": "uint256[]",
          "name": "underlying_balances",
          "type": "uint256[]"
        },
        {
          "internalType": "uint256[]",
          "name": "rates",
          "type": "uint256[]"
        },
        {
          "internalType": "uint256",
          "name": "A",
          "type": "uint256"
        },
        {
          "internalType": "uint256",
          "name": "fee",
          "type": "uint256"
        }
      ],
      "stateMutability": "view",
      "type": "function"
    },
    {
      "inputs": [
        {
          "internalType": "address",
          "name": "smoothyV1",
          "type": "address"
        }
      ],
      "name": "smoothyV1State",
      "outputs": [
        {
          "internalType": "uint256[]",
          "name": "tokenInfos",
          "type": "uint256[]"
        },
        {
          "internalType": "uint256[]",
          "name": "tokenBalances",
          "type": "uint256[]"
        },
        {
          "internalType": "uint256",
          "name": "totalBalance",
          "type": "uint256"
        },
        {
          "internalType": "uint256",
          "name": "swapFee",
          "type": "uint256"
        }
      ],
      "stateMutability": "view",
      "type": "function"
    }
  ],
  "transactionHash": "0x9d40f690e103e597c72741bfb27adc2e5b8e2937f2cf6e70d5f05078dde0c4dd",
  "args": [],
  "solcInputHash": "204427ab5a64c9a536f82c6446ff2b19",
  "bytecode": "0x608060405234801561001057600080fd5b5061167a806100206000396000f3fe608060405234801561001057600080fd5b506004361061004c5760003560e01c80631001f934146100515780631e308cb31461007e578063841ae84d146100a2578063eb653451146100c6575b600080fd5b61006461005f3660046111ce565b6100e9565b604051610075959493929190611403565b60405180910390f35b61009161008c366004611086565b610700565b6040516100759594939291906113c0565b6100b56100b0366004611086565b6108fa565b60405161007595949392919061136e565b6100d96100d436600461104e565b610aaf565b6040516100759493929190611451565b6040805160088082526101208201909252606091829182916000918291602082016101008036833701905050945060005b866020015160ff1681101561025957866040015160ff166001146101bc578651604051634903b0d160e01b81526001600160a01b0390911690634903b0d19061016790849060040161148a565b60206040518083038186803b15801561017f57600080fd5b505afa158015610193573d6000803e3d6000fd5b505050506040513d601f19601f820116820180604052508101906101b7919061128c565b61023a565b865160405162cb501b60e31b81526001600160a01b039091169063065a80d8906101ea908490600401611493565b60206040518083038186803b15801561020257600080fd5b505afa158015610216573d6000803e3d6000fd5b505050506040513d601f19601f8201168201806040525081019061023a919061128c565b86828151811061024657fe5b602090810291909101015260010161011a565b50604080516008808252610120820190925290602082016101008036833750505060608701519093501561050c57608086015160a0870151602088015160609060ff1667ffffffffffffffff811180156102b257600080fd5b506040519080825280602002602001820160405280156102dc578160200160208202803683370190505b509050600082511180156102f757506001600160a01b038316155b1561044e5760005b896020015160ff1681101561044c57896040015160ff166001146103a157895160405163c661065760e01b81526001600160a01b039091169063c66106579061034c90849060040161148a565b60206040518083038186803b15801561036457600080fd5b505afa158015610378573d6000803e3d6000fd5b505050506040513d601f19601f8201168201806040525081019061039c919061106a565b610420565b895160405163046e8dd760e31b81526001600160a01b03909116906323746eb8906103d0908490600401611493565b60206040518083038186803b1580156103e857600080fd5b505afa1580156103fc573d6000803e3d6000fd5b505050506040513d601f19601f82011682018060405250810190610420919061106a565b82828151811061042c57fe5b6001600160a01b03909216602092830291909101909101526001016102ff565b505b60005b896020015160ff1681101561050357825161048c57670de0b6b3a764000087828151811061047b57fe5b6020026020010181815250506104fb565b60606104cb846001600160a01b038716156104a757866104bc565b8484815181106104b357fe5b60200260200101515b6001600160a01b031690610dda565b9050808060200190518101906104e1919061128c565b8883815181106104ed57fe5b602002602001018181525050505b600101610451565b50505050610548565b60005b866020015160ff1681101561054657670de0b6b3a764000084828151811061053357fe5b602090810291909101015260010161050f565b505b60408051600880825261012082019092529060208201610100803683375050506060870151909450156106095760005b866020015160ff16811015610607576000610100826008028960600151901c8161059e57fe5b0690506105e781600a0a6105e18785815181106105b757fe5b60200260200101518a86815181106105cb57fe5b6020026020010151610e0890919063ffffffff16565b90610e4b565b8683815181106105f357fe5b602090810291909101015250600101610578565b505b85600001516001600160a01b031663f446c1d06040518163ffffffff1660e01b815260040160206040518083038186803b15801561064657600080fd5b505afa15801561065a573d6000803e3d6000fd5b505050506040513d601f19601f8201168201806040525081019061067e919061128c565b915085600001516001600160a01b031663ddca3f436040518163ffffffff1660e01b815260040160206040518083038186803b1580156106bd57600080fd5b505afa1580156106d1573d6000803e3d6000fd5b505050506040513d601f19601f820116820180604052508101906106f5919061128c565b905091939590929450565b6060806000806000876001600160a01b031663f94d4668886040518263ffffffff1660e01b8152600401610734919061148a565b60006040518083038186803b15801561074c57600080fd5b505afa158015610760573d6000803e3d6000fd5b505050506040513d6000823e601f3d908101601f1916820160405261078891908101906110c7565b508095508196505050856001600160a01b03166318160ddd6040518163ffffffff1660e01b815260040160206040518083038186803b1580156107ca57600080fd5b505afa1580156107de573d6000803e3d6000fd5b505050506040513d601f19601f82011682018060405250810190610802919061128c565b9250856001600160a01b0316636daccffa6040518163ffffffff1660e01b815260040160606040518083038186803b15801561083d57600080fd5b505afa158015610851573d6000803e3d6000fd5b505050506040513d601f19601f8201168201806040525081019061087591906112a4565b90505080925050856001600160a01b03166355c676286040518163ffffffff1660e01b815260040160206040518083038186803b1580156108b557600080fd5b505afa1580156108c9573d6000803e3d6000fd5b505050506040513d601f19601f820116820180604052508101906108ed919061128c565b9050939792965093509350565b606080600060606000876001600160a01b031663f94d4668886040518263ffffffff1660e01b815260040161092f919061148a565b60006040518083038186803b15801561094757600080fd5b505afa15801561095b573d6000803e3d6000fd5b505050506040513d6000823e601f3d908101601f1916820160405261098391908101906110c7565b508095508196505050856001600160a01b03166318160ddd6040518163ffffffff1660e01b815260040160206040518083038186803b1580156109c557600080fd5b505afa1580156109d9573d6000803e3d6000fd5b505050506040513d601f19601f820116820180604052508101906109fd919061128c565b9250856001600160a01b031663f89f27ed6040518163ffffffff1660e01b815260040160006040518083038186803b158015610a3857600080fd5b505afa158015610a4c573d6000803e3d6000fd5b505050506040513d6000823e601f3d908101601f19168201604052610a749190810190611193565b9150856001600160a01b03166355c676286040518163ffffffff1660e01b815260040160206040518083038186803b1580156108b557600080fd5b6060806000806000856001600160a01b03166385c9f85e6040518163ffffffff1660e01b815260040160206040518083038186803b158015610af057600080fd5b505afa158015610b04573d6000803e3d6000fd5b505050506040513d601f19601f82011682018060405250810190610b28919061128c565b90508067ffffffffffffffff81118015610b4157600080fd5b50604051908082528060200260200182016040528015610b6b578160200160208202803683370190505b5094508067ffffffffffffffff81118015610b8557600080fd5b50604051908082528060200260200182016040528015610baf578160200160208202803683370190505b50935060005b81811015610ceb57604051638676192b60e01b81526001600160a01b03881690638676192b90610be990849060040161148a565b60206040518083038186803b158015610c0157600080fd5b505afa158015610c15573d6000803e3d6000fd5b505050506040513d601f19601f82011682018060405250810190610c39919061128c565b868281518110610c4557fe5b6020908102919091010152604051631e01043960e01b81526001600160a01b03881690631e01043990610c7c90849060040161148a565b60206040518083038186803b158015610c9457600080fd5b505afa158015610ca8573d6000803e3d6000fd5b505050506040513d601f19601f82011682018060405250810190610ccc919061128c565b858281518110610cd857fe5b6020908102919091010152600101610bb5565b50856001600160a01b031663252f7b496040518163ffffffff1660e01b815260040160206040518083038186803b158015610d2557600080fd5b505afa158015610d39573d6000803e3d6000fd5b505050506040513d601f19601f82011682018060405250810190610d5d919061128c565b9250856001600160a01b031663832781556040518163ffffffff1660e01b815260040160206040518083038186803b158015610d9857600080fd5b505afa158015610dac573d6000803e3d6000fd5b505050506040513d601f19601f82011682018060405250810190610dd0919061128c565b9150509193509193565b6060610dff838360405180606001604052806025815260200161162060259139610e7d565b90505b92915050565b600082610e1757506000610e02565b82820282848281610e2457fe5b0414610dff5760405162461bcd60e51b8152600401610e429061150b565b60405180910390fd5b6000808211610e6c5760405162461bcd60e51b8152600401610e42906114d4565b818381610e7557fe5b049392505050565b6060610e8884610f1c565b610ea45760405162461bcd60e51b8152600401610e429061154c565b60006060856001600160a01b031685604051610ec09190611352565b600060405180830381855afa9150503d8060008114610efb576040519150601f19603f3d011682016040523d82523d6000602084013e610f00565b606091505b5091509150610f10828286610f22565b925050505b9392505050565b3b151590565b60608315610f31575081610f15565b825115610f415782518084602001fd5b8160405162461bcd60e51b8152600401610e4291906114a1565b8035610e0281611607565b600082601f830112610f76578081fd5b8151610f89610f84826115b7565b611590565b818152915060208083019084810181840286018201871015610faa57600080fd5b60005b84811015610fc957815184529282019290820190600101610fad565b505050505092915050565b600082601f830112610fe4578081fd5b813567ffffffffffffffff811115610ffa578182fd5b61100d601f8201601f1916602001611590565b915080825283602082850101111561102457600080fd5b8060208401602084013760009082016020015292915050565b803560ff81168114610e0257600080fd5b60006020828403121561105f578081fd5b8135610dff81611607565b60006020828403121561107b578081fd5b8151610dff81611607565b60008060006060848603121561109a578182fd5b83356110a581611607565b92506020840135915060408401356110bc81611607565b809150509250925092565b6000806000606084860312156110db578283fd5b835167ffffffffffffffff808211156110f2578485fd5b818601915086601f830112611105578485fd5b8151611113610f84826115b7565b80828252602080830192508086018b82838702890101111561113357898afd5b8996505b8487101561115e57805161114a81611607565b845260019690960195928101928101611137565b508901519097509350505080821115611175578384fd5b5061118286828701610f66565b925050604084015190509250925092565b6000602082840312156111a4578081fd5b815167ffffffffffffffff8111156111ba578182fd5b6111c684828501610f66565b949350505050565b6000602082840312156111df578081fd5b813567ffffffffffffffff808211156111f6578283fd5b9083019060c08286031215611209578283fd5b61121360c0611590565b823561121e81611607565b815261122d866020850161103d565b602082015261123f866040850161103d565b60408201526060830135606082015261125b8660808501610f5b565b608082015260a083013582811115611271578485fd5b61127d87828601610fd4565b60a08301525095945050505050565b60006020828403121561129d578081fd5b5051919050565b6000806000606084860312156112b8578283fd5b83519250602084015180151581146112ce578283fd5b80925050604084015190509250925092565b6000815180845260208085019450808401835b838110156113185781516001600160a01b0316875295820195908201906001016112f3565b509495945050505050565b6000815180845260208085019450808401835b8381101561131857815187529582019590820190600101611336565b600082516113648184602087016115d7565b9190910192915050565b600060a0825261138160a08301886112e0565b82810360208401526113938188611323565b905085604084015282810360608401526113ad8186611323565b9150508260808301529695505050505050565b600060a082526113d360a08301886112e0565b82810360208401526113e58188611323565b60408401969096525050606081019290925260809091015292915050565b600060a0825261141660a0830188611323565b82810360208401526114288188611323565b9050828103604084015261143c8187611323565b60608401959095525050608001529392505050565b6000608082526114646080830187611323565b82810360208401526114768187611323565b604084019590955250506060015292915050565b90815260200190565b600f9190910b815260200190565b60006020825282518060208401526114c08160408501602087016115d7565b601f01601f19169190910160400192915050565b6020808252601a908201527f536166654d6174683a206469766973696f6e206279207a65726f000000000000604082015260600190565b60208082526021908201527f536166654d6174683a206d756c7469706c69636174696f6e206f766572666c6f6040820152607760f81b606082015260800190565b60208082526024908201527f416464726573733a207374617469632063616c6c20746f206e6f6e2d636f6e746040820152631c9858dd60e21b606082015260800190565b60405181810167ffffffffffffffff811182821017156115af57600080fd5b604052919050565b600067ffffffffffffffff8211156115cd578081fd5b5060209081020190565b60005b838110156115f25781810151838201526020016115da565b83811115611601576000848401525b50505050565b6001600160a01b038116811461161c57600080fd5b5056fe416464726573733a206c6f772d6c6576656c207374617469632063616c6c206661696c6564a264697066735822122036a0dfef7a74d6d32433d4b34e3e8add74524357489321454291cff53a8820ba64736f6c634300060c0033",
  "devdoc": {
    "kind": "dev",
    "methods": {},
    "version": 1
  },
  "userdoc": {
    "kind": "user",
    "methods": {},
    "version": 1
  },
  "storageLayout": {
    "storage": [],
    "types": null
  }
}