{
  "address": "0x9F92b2706c643ae6FDF2e9ca472f0E48497385f1",
  "abi": [
    {
      "inputs": [
        {
          "internalType": "address",
          "name": "pool",
          "type": "address"
        },
        {
          "internalType": "contract IERC20",
          "name": "from",
          "type": "address"
        },
        {
          "internalType": "contract IERC20",
          "name": "to",
          "type": "address"
        },
        {
          "internalType": "address",
          "name": "target",
          "type": "address"
        }
      ],
      "name": "dmmSwap",
      "outputs": [],
      "stateMutability": "nonpayable",
      "type": "function"
    },
    {
      "inputs": [
        {
          "components": [
            {
              "internalType": "uint256",
              "name": "target",
              "type": "uint256"
            },
            {
              "internalType": "uint256",
              "name": "gasLimit",
              "type": "uint256"
            },
            {
              "internalType": "uint256",
              "name": "value",
              "type": "uint256"
            },
            {
              "internalType": "bytes",
              "name": "data",
              "type": "bytes"
            }
          ],
          "internalType": "struct IOpenOceanCaller.CallDescription",
          "name": "desc",
          "type": "tuple"
        }
      ],
      "name": "makeCall",
      "outputs": [],
      "stateMutability": "nonpayable",
      "type": "function"
    },
    {
      "inputs": [
        {
          "components": [
            {
              "internalType": "uint256",
              "name": "target",
              "type": "uint256"
            },
            {
              "internalType": "uint256",
              "name": "gasLimit",
              "type": "uint256"
            },
            {
              "internalType": "uint256",
              "name": "value",
              "type": "uint256"
            },
            {
              "internalType": "bytes",
              "name": "data",
              "type": "bytes"
            }
          ],
          "internalType": "struct IOpenOceanCaller.CallDescription[]",
          "name": "desc",
          "type": "tuple[]"
        }
      ],
      "name": "makeCalls",
      "outputs": [],
      "stateMutability": "payable",
      "type": "function"
    },
    {
      "inputs": [
        {
          "internalType": "contract IERC20",
          "name": "token",
          "type": "address"
        },
        {
          "internalType": "uint256",
          "name": "distribution",
          "type": "uint256"
        },
        {
          "components": [
            {
              "internalType": "uint256",
              "name": "target",
              "type": "uint256"
            },
            {
              "internalType": "uint256",
              "name": "gasLimit",
              "type": "uint256"
            },
            {
              "internalType": "uint256",
              "name": "value",
              "type": "uint256"
            },
            {
              "internalType": "bytes",
              "name": "data",
              "type": "bytes"
            }
          ],
          "internalType": "struct IOpenOceanCaller.CallDescription[]",
          "name": "descs",
          "type": "tuple[]"
        },
        {
          "internalType": "uint256[]",
          "name": "amountBiases",
          "type": "uint256[]"
        }
      ],
      "name": "multiDistributionCall",
      "outputs": [],
      "stateMutability": "nonpayable",
      "type": "function"
    },
    {
      "inputs": [
        {
          "internalType": "contract IERC20",
          "name": "token",
          "type": "address"
        },
        {
          "internalType": "address",
          "name": "spender",
          "type": "address"
        },
        {
          "internalType": "uint256",
          "name": "amount",
          "type": "uint256"
        }
      ],
      "name": "safeApprove",
      "outputs": [],
      "stateMutability": "nonpayable",
      "type": "function"
    },
    {
      "inputs": [
        {
          "internalType": "contract IERC20",
          "name": "token",
          "type": "address"
        },
        {
          "internalType": "address payable",
          "name": "target",
          "type": "address"
        },
        {
          "internalType": "uint256",
          "name": "amount",
          "type": "uint256"
        }
      ],
      "name": "safeTransfer",
      "outputs": [],
      "stateMutability": "nonpayable",
      "type": "function"
    },
    {
      "inputs": [
        {
          "internalType": "contract IERC20",
          "name": "token",
          "type": "address"
        },
        {
          "internalType": "uint256",
          "name": "distribution",
          "type": "uint256"
        },
        {
          "components": [
            {
              "internalType": "uint256",
              "name": "target",
              "type": "uint256"
            },
            {
              "internalType": "uint256",
              "name": "gasLimit",
              "type": "uint256"
            },
            {
              "internalType": "uint256",
              "name": "value",
              "type": "uint256"
            },
            {
              "internalType": "bytes",
              "name": "data",
              "type": "bytes"
            }
          ],
          "internalType": "struct IOpenOceanCaller.CallDescription",
          "name": "desc",
          "type": "tuple"
        },
        {
          "internalType": "uint256",
          "name": "amountBias",
          "type": "uint256"
        }
      ],
      "name": "singleDistributionCall",
      "outputs": [],
      "stateMutability": "nonpayable",
      "type": "function"
    },
    {
      "inputs": [
        {
          "internalType": "uint256",
          "name": "pool",
          "type": "uint256"
        },
        {
          "internalType": "address",
          "name": "srcToken",
          "type": "address"
        },
        {
          "internalType": "address",
          "name": "receiver",
          "type": "address"
        }
      ],
      "name": "solidlySwap",
      "outputs": [],
      "stateMutability": "nonpayable",
      "type": "function"
    },
    {
      "inputs": [
        {
          "internalType": "uint256",
          "name": "pool",
          "type": "uint256"
        },
        {
          "internalType": "address",
          "name": "srcToken",
          "type": "address"
        },
        {
          "internalType": "address",
          "name": "receiver",
          "type": "address"
        }
      ],
      "name": "uniswapV2Swap",
      "outputs": [],
      "stateMutability": "nonpayable",
      "type": "function"
    },
    {
      "inputs": [
        {
          "internalType": "address",
          "name": "pool",
          "type": "address"
        },
        {
          "internalType": "bool",
          "name": "zeroForOne",
          "type": "bool"
        },
        {
          "internalType": "int256",
          "name": "amount",
          "type": "int256"
        },
        {
          "internalType": "address",
          "name": "recipient",
          "type": "address"
        },
        {
          "internalType": "bytes",
          "name": "path",
          "type": "bytes"
        }
      ],
      "name": "uniswapV3Swap",
      "outputs": [],
      "stateMutability": "nonpayable",
      "type": "function"
    },
    {
      "inputs": [
        {
          "internalType": "int256",
          "name": "amount0Delta",
          "type": "int256"
        },
        {
          "internalType": "int256",
          "name": "amount1Delta",
          "type": "int256"
        },
        {
          "internalType": "bytes",
          "name": "callback",
          "type": "bytes"
        }
      ],
      "name": "uniswapV3SwapCallback",
      "outputs": [],
      "stateMutability": "nonpayable",
      "type": "function"
    },
    {
      "stateMutability": "payable",
      "type": "receive"
    }
  ],
  "transactionHash": "0x3764ce90fbac709a990227dcfd22b953d2457f96d4ccc958b073ad12c055e81e",
  "args": [],
  "solcInputHash": "79fd1b5e017d858a0d9174e21045f392",
  "bytecode": "0x608060405234801561001057600080fd5b50613098806100206000396000f3fe6080604052600436106100a05760003560e01c8063aa37e8aa11610064578063aa37e8aa1461014c578063cac460ee1461016c578063d1660f991461018c578063e5b07cdb146101ac578063eb5625d9146101cc578063fa461e33146101ec576100b4565b80630c7e1209146100b95780633afe5f00146100d957806351a74316146100f95780639f86542214610119578063a8920d2b14610139576100b4565b366100b457333214156100b257600080fd5b005b600080fd5b3480156100c557600080fd5b506100b26100d43660046125b6565b61020c565b3480156100e557600080fd5b506100b26100f436600461276e565b61024a565b34801561010557600080fd5b506100b2610114366004612414565b610426565b34801561012557600080fd5b506100b26101343660046124e5565b6105d5565b6100b2610147366004612372565b6106c1565b34801561015857600080fd5b506100b2610167366004612317565b61076f565b34801561017857600080fd5b506100b261018736600461276e565b61094e565b34801561019857600080fd5b506100b26101a73660046123c0565b610be6565b3480156101b857600080fd5b506100b26101c7366004612295565b610bfa565b3480156101d857600080fd5b506100b26101e7366004612400565b610d1d565b3480156101f857600080fd5b506100b2610207366004612566565b610d31565b6000606061021983610e4a565b9150915081610245578060405162461bcd60e51b815260040161023c91906129fb565b60405180910390fd5b505050565b60006001600160a01b03841690506000600160ff1b85166000141590506000806000846001600160a01b031663392f37e96040518163ffffffff1660e01b815260040160e06040518083038186803b1580156102a557600080fd5b505afa1580156102b9573d6000803e3d6000fd5b505050506040513d601f19601f820116820180604052508101906102dd91906127a4565b505050935093505050836102f157816102f3565b805b92505050600061037f82876001600160a01b03166370a08231876040518263ffffffff1660e01b81526004016103299190612951565b60206040518083038186803b15801561034157600080fd5b505afa158015610355573d6000803e3d6000fd5b505050506040513d601f19601f820116820180604052508101906103799190612756565b90610ff5565b9050600061038e858386611022565b9050600080856103a0576000836103a4565b8260005b6040805160008152602081019182905263022c0d9f60e01b90915291935091506001600160a01b0388169063022c0d9f906103e890859085908d9060248101612f7f565b600060405180830381600087803b15801561040257600080fd5b505af1158015610416573d6000803e3d6000fd5b5050505050505050505050505050565b80518251146104475760405162461bcd60e51b815260040161023c90612d5e565b600061045c6001600160a01b038616306111b8565b90506000811161047e5760405162461bcd60e51b815260040161023c90612a0e565b60008061048a8661125c565b9150915060006104bf826001600160801b03166104b9856001600160801b0316876112a390919063ffffffff16565b906112dd565b905060005b86518110156105ca576104df896001600160a01b031661130f565b801561050357508681815181106104f257fe5b602002602001015160000151600014155b15610526578187828151811061051557fe5b602002602001015160400181815250505b600086828151811061053457fe5b6020026020010151111561057d5761057d8287838151811061055257fe5b602002602001015189848151811061056657fe5b602002602001015161135a9092919063ffffffff16565b6000606061059d89848151811061059057fe5b6020026020010151610e4a565b91509150816105c0578060405162461bcd60e51b815260040161023c91906129fb565b50506001016104c4565b505050505050505050565b60006105ea6001600160a01b038616306111b8565b90506000806105f88661125c565b915091506000610627826001600160801b03166104b9856001600160801b0316876112a390919063ffffffff16565b9050600081116106495760405162461bcd60e51b815260040161023c90612a0e565b61065b886001600160a01b031661130f565b80156106675750855115155b1561067457604086018190525b84156106855761068586828761135a565b6000606061069288610e4a565b91509150816106b5578060405162461bcd60e51b815260040161023c91906129fb565b50505050505050505050565b60008151116106e25760405162461bcd60e51b815260040161023c90612a53565b60005b815181101561076b57306001600160a01b0316630c7e120983838151811061070957fe5b60200260200101516040518263ffffffff1660e01b815260040161072d9190612ef5565b600060405180830381600087803b15801561074757600080fd5b505af115801561075b573d6000803e3d6000fd5b5050600190920191506106e59050565b5050565b6000826001600160a01b0316846001600160a01b03161190506000806000806000896001600160a01b031663d66940276040518163ffffffff1660e01b815260040160a06040518083038186803b1580156107c957600080fd5b505afa1580156107dd573d6000803e3d6000fd5b505050506040513d601f19601f820116820180604052508101906108019190612698565b945094509450945094508561081757848461081a565b83855b90955093508561082b57828261082e565b81835b80935081945050506000610871866001600160701b03168b6001600160a01b03166370a082318e6040518263ffffffff1660e01b81526004016103299190612951565b90506000610893856001600160701b0316856001600160701b03168486611394565b9050600080896108a5576000836108a9565b8260005b90925090506001600160a01b038e1663022c0d9f83838e60006040519080825280601f01601f1916602001820160405280156108ec576020820181803683370190505b506040518563ffffffff1660e01b815260040161090c9493929190612f7f565b600060405180830381600087803b15801561092657600080fd5b505af115801561093a573d6000803e3d6000fd5b505050505050505050505050505050505050565b6001600160a01b038316600160ff1b841615156000808080600160fc1b89166109ed57856001600160a01b0316630902f1ac6040518163ffffffff1660e01b815260040160606040518083038186803b1580156109aa57600080fd5b505afa1580156109be573d6000803e3d6000fd5b505050506040513d601f19601f820116820180604052508101906109e29190612702565b509092509050610a63565b856001600160a01b0316630902f1ac6040518163ffffffff1660e01b8152600401604080518083038186803b158015610a2557600080fd5b505afa158015610a39573d6000803e3d6000fd5b505050506040513d601f19601f82011682018060405250810190610a5d919061265f565b90925090505b84610a6f578181610a72565b80825b6040516370a0823160e01b81526001600160701b0392831696509116935060009250610aba915084906001600160a01b038a16906370a0823190610329908a90600401612951565b90506000610ad784848460a063ffffffff60a01b8e16901c6113f9565b905060008086610ae957600083610aed565b8260005b91509150600160fd1b8b1660001415610b76576040805160008152602081019182905263022c0d9f60e01b9091526001600160a01b0389169063022c0d9f90610b3f90859085908e9060248101612f7f565b600060405180830381600087803b158015610b5957600080fd5b505af1158015610b6d573d6000803e3d6000fd5b50505050610bd9565b6040516336cd320560e11b81526001600160a01b03891690636d9a640a90610ba690859085908e90600401612f60565b600060405180830381600087803b158015610bc057600080fd5b505af1158015610bd4573d6000803e3d6000fd5b505050505b5050505050505050505050565b6102456001600160a01b0384168383611430565b600085610c1b5773fffd8963efd1fc6a506488495d951d5263988d25610c22565b6401000276a45b9050610c2c6120df565b6040805160606020601f8701819004028201810183529181018581529091829190879087908190850183828082843760009201919091525050509082525060209081018890526040519192506001600160a01b038a169163128acb089188918b918b918891610c9d91899101612f2e565b6040516020818303038152906040526040518663ffffffff1660e01b8152600401610ccc9594939291906129a7565b6040805180830381600087803b158015610ce557600080fd5b505af1158015610cf9573d6000803e3d6000fd5b505050506040513d601f19601f820116820180604052508101906106b59190612543565b6102456001600160a01b0384168383611494565b6000841380610d405750600083135b610d5c5760405162461bcd60e51b815260040161023c90612dd7565b610d646120df565b610d70828401846125e8565b90506000806000610d848460000151611599565b9250925092506000610d9f610d9a8585856115ca565b611620565b9050336001600160a01b03821614610dc95760405162461bcd60e51b815260040161023c90612d27565b60008060008b13610def57856001600160a01b0316856001600160a01b0316108a610e06565b846001600160a01b0316866001600160a01b0316108b5b91509150818015610e1a5750866020015181145b610e365760405162461bcd60e51b815260040161023c90612e01565b610bd96001600160a01b03871633836116e4565b60006060610e5b836060015161173a565b15610e785760405162461bcd60e51b815260040161023c90612c2a565b82516001600160a01b038116610e8b5750305b8360400151816001600160a01b0316311015610eb95760405162461bcd60e51b815260040161023c90612b73565b60006060600086602001511115610f3f57826001600160a01b031686604001518760200151908860600151604051610ef19190612843565b600060405180830381858888f193505050503d8060008114610f2f576040519150601f19603f3d011682016040523d82523d6000602084013e610f34565b606091505b509092509050610fa9565b826001600160a01b031686604001518760600151604051610f609190612843565b60006040518083038185875af1925050503d8060008114610f9d576040519150601f19603f3d011682016040523d82523d6000602084013e610fa2565b606091505b5090925090505b81610fe9826040518060400160405280602081526020017f4f70656e4f6365616e2065787465726e616c2063616c6c206661696c65643a208152506117f2565b94509450505050915091565b6000828211156110175760405162461bcd60e51b815260040161023c90612af6565b508082035b92915050565b60006127108304830392506000806000806000886001600160a01b031663392f37e96040518163ffffffff1660e01b815260040160e06040518083038186803b15801561106e57600080fd5b505afa158015611082573d6000803e3d6000fd5b505050506040513d601f19601f820116820180604052508101906110a691906127a4565b50509450945094509450945080156111835760006110c78485888886611a00565b90508584670de0b6b3a764000002816110dc57fe5b0493508483670de0b6b3a764000002816110f257fe5b04925060008089611104578585611107565b84865b915091508961112957878b670de0b6b3a7640000028161112357fe5b0461113e565b868b670de0b6b3a7640000028161113c57fe5b045b9a50600061114f838d018584611a8e565b82039050670de0b6b3a76400008b6111675788611169565b895b82028161117257fe5b0499505050505050505050506111b1565b60008088611192578484611195565b83855b91509150898201818b02816111a657fe5b049750505050505050505b9392505050565b60006111c38361130f565b156111d957506001600160a01b0381163161101c565b6040516370a0823160e01b81526001600160a01b038416906370a0823190611205908590600401612951565b60206040518083038186803b15801561121d57600080fd5b505afa158015611231573d6000803e3d6000fd5b505050506040513d601f19601f820116820180604052508101906112559190612756565b905061101c565b600080608083901c83811580159061127d57506000816001600160801b0316115b6112995760405162461bcd60e51b815260040161023c90612d5e565b9092509050915091565b6000826112b25750600061101c565b828202828482816112bf57fe5b04146111b15760405162461bcd60e51b815260040161023c90612c5a565b60008082116112fe5760405162461bcd60e51b815260040161023c90612bc4565b81838161130757fe5b049392505050565b60006001600160a01b03821673eeeeeeeeeeeeeeeeeeeeeeeeeeeeeeeeeeeeeeee148061134657506001600160a01b038216611010145b8061101c5750506001600160a01b03161590565b60608260405160200161136d9190612948565b60408051601f19818403018152919052606094909401516020948501519201909301525050565b6000806113b7670de0b6b3a76400006104b96113b08287610ff5565b87906112a3565b905060006113c582876112a3565b905060006113d38884611b4f565b905080156113ea576113e582826112dd565b6113ed565b60005b98975050505050505050565b60008061140684846112a3565b9050600061141482876112a3565b905060006113d38361142a8a633b9aca006112a3565b90611b4f565b80156102455761143f8361130f565b15611480576040516001600160a01b0383169082156108fc029083906000818181858888f1935050505015801561147a573d6000803e3d6000fd5b50610245565b6102456001600160a01b03841683836116e4565b61149d8361130f565b156114ba5760405162461bcd60e51b815260040161023c90612bfb565b806114d9576114d46001600160a01b038416836000611b74565b610245565b604051636eb1769f60e11b81526000906001600160a01b0385169063dd62ed3e9061150a9030908790600401612965565b60206040518083038186803b15801561152257600080fd5b505afa158015611536573d6000803e3d6000fd5b505050506040513d601f19601f8201168201806040525081019061155a9190612756565b90508181101561159357801561157f5761157f6001600160a01b038516846000611b74565b6115936001600160a01b0385168484611b74565b50505050565b600080806115a78482611c37565b92506115b4846014611c90565b90506115c1846017611c37565b91509193909250565b6115d26120f9565b826001600160a01b0316846001600160a01b031611156115f0579192915b50604080516060810182526001600160a01b03948516815292909316602083015262ffffff169181019190915290565b600081602001516001600160a01b031682600001516001600160a01b03161061164857600080fd5b731f98431c8ad98523631ae4a59f267346ea31f98482600001518360200151846040015160405160200161167e9392919061297f565b60408051601f198184030181529082905280516020918201206116c6939290917fe34f199b19b2b4f47f68442619d555527d244f78a3297ea89325f843f87b8b549101612910565b60408051601f19818403018152919052805160209091012092915050565b6102458363a9059cbb60e01b84846040516024016117039291906129e2565b60408051601f198184030181529190526020810180516001600160e01b03166001600160e01b031990931692909217909152611ce2565b60008151606414801561176c57508160008151811061175557fe5b6020910101516001600160f81b031916602360f81b145b801561179757508160018151811061178057fe5b6020910101516001600160f81b031916601760fb1b145b80156117c25750816002815181106117ab57fe5b6020910101516001600160f81b031916603960f91b145b801561101c5750816003815181106117d657fe5b6020910101516001600160f81b03191660dd60f81b1492915050565b6060604483511015801561182557508260008151811061180e57fe5b6020910101516001600160f81b031916600160fb1b145b801561185057508260018151811061183957fe5b6020910101516001600160f81b03191660c360f81b145b801561187b57508260028151811061186457fe5b6020910101516001600160f81b031916607960f81b145b80156118a657508260038151811061188f57fe5b6020910101516001600160f81b031916600560fd1b145b156119025760606044840190508051604401845110156118d85760405162461bcd60e51b815260040161023c90612cf8565b82816040516020016118eb9291906128db565b60405160208183030381529060405291505061101c565b8251602414801561193257508260008151811061191b57fe5b6020910101516001600160f81b031916602760f91b145b801561195d57508260018151811061194657fe5b6020910101516001600160f81b031916600960fb1b145b801561198857508260028151811061197157fe5b6020910101516001600160f81b031916607b60f81b145b80156119b357508260038151811061199c57fe5b6020910101516001600160f81b031916607160f81b145b156119d8576024830151826119c782611d71565b6040516020016118eb92919061288c565b816040516020016119e9919061285f565b604051602081830303815290604052905092915050565b60008115611a805760008487670de0b6b3a76400000281611a1d57fe5b04905060008487670de0b6b3a76400000281611a3557fe5b0490506000670de0b6b3a76400008383020490506000670de0b6b3a764000083800204670de0b6b3a764000085800204019050670de0b6b3a764000082820204945050505050611a85565b508484025b95945050505050565b6000805b60ff811015611b4657826000611aa88783611d9b565b905085811015611ade576000611abe8887611deb565b828803670de0b6b3a76400000281611ad257fe5b04959095019450611b05565b6000611aea8887611deb565b878303670de0b6b3a76400000281611afe57fe5b0490950394505b81851115611b2757600182860311611b22578493505050506111b1565b611b3c565b600185830311611b3c578493505050506111b1565b5050600101611a92565b50909392505050565b6000828201838110156111b15760405162461bcd60e51b815260040161023c90612a94565b801580611bfc5750604051636eb1769f60e11b81526001600160a01b0384169063dd62ed3e90611baa9030908690600401612965565b60206040518083038186803b158015611bc257600080fd5b505afa158015611bd6573d6000803e3d6000fd5b505050506040513d601f19601f82011682018060405250810190611bfa9190612756565b155b611c185760405162461bcd60e51b815260040161023c90612e73565b6102458363095ea7b360e01b84846040516024016117039291906129e2565b600081826014011015611c5c5760405162461bcd60e51b815260040161023c90612ec9565b8160140183511015611c805760405162461bcd60e51b815260040161023c90612cc9565b500160200151600160601b900490565b600081826003011015611cb55760405162461bcd60e51b815260040161023c90612acb565b8160030183511015611cd95760405162461bcd60e51b815260040161023c90612c9b565b50016003015190565b6060611d37826040518060400160405280602081526020017f5361666545524332303a206c6f772d6c6576656c2063616c6c206661696c6564815250856001600160a01b0316611e1f9092919063ffffffff16565b8051909150156102455780806020019051810190611d5591906123a4565b6102455760405162461bcd60e51b815260040161023c90612e29565b606061101c82604051602001611d879190612948565b604051602081830303815290604052611e36565b6000670de0b6b3a764000082818581818002040281611db657fe5b040281611dbf57fe5b04670de0b6b3a7640000808481818002040281611dd857fe5b04850281611de257fe5b04019392505050565b6000670de0b6b3a76400008381818002040281611e0457fe5b04670de0b6b3a76400008084800204856003020281611de257fe5b6060611e2e8484600085611fdf565b949350505050565b6060806040518060400160405280601081526020016f181899199a1a9b1b9c1cb0b131b232b360811b8152509050606083516002026002016001600160401b0381118015611e8357600080fd5b506040519080825280601f01601f191660200182016040528015611eae576020820181803683370190505b509050600360fc1b81600081518110611ec357fe5b60200101906001600160f81b031916908160001a905350600f60fb1b81600181518110611eec57fe5b60200101906001600160f81b031916908160001a90535060005b8451811015611fd757826004868381518110611f1e57fe5b016020015182516001600160f81b031990911690911c60f81c908110611f4057fe5b602001015160f81c60f81b828260020260020181518110611f5d57fe5b60200101906001600160f81b031916908160001a90535082858281518110611f8157fe5b602091010151815160f89190911c600f16908110611f9b57fe5b602001015160f81c60f81b828260020260030181518110611fb857fe5b60200101906001600160f81b031916908160001a905350600101611f06565b509392505050565b6060824710156120015760405162461bcd60e51b815260040161023c90612b2d565b61200a856120a0565b6120265760405162461bcd60e51b815260040161023c90612da0565b60006060866001600160a01b031685876040516120439190612843565b60006040518083038185875af1925050503d8060008114612080576040519150601f19603f3d011682016040523d82523d6000602084013e612085565b606091505b50915091506120958282866120a6565b979650505050505050565b3b151590565b606083156120b55750816111b1565b8251156120c55782518084602001fd5b8160405162461bcd60e51b815260040161023c91906129fb565b604051806040016040528060608152602001600081525090565b604080516060810182526000808252602082018190529181019190915290565b600082601f830112612129578081fd5b813561213c61213782612fdc565b612fb6565b818152915060208083019084810160005b8481101561217657612164888484358a010161222f565b8452928201929082019060010161214d565b505050505092915050565b60008083601f840112612192578182fd5b5081356001600160401b038111156121a8578182fd5b6020830191508360208285010111156121c057600080fd5b9250929050565b600082601f8301126121d7578081fd5b81356001600160401b038111156121ec578182fd5b6121ff601f8201601f1916602001612fb6565b915080825283602082850101111561221657600080fd5b8060208401602084013760009082016020015292915050565b600060808284031215612240578081fd5b61224a6080612fb6565b905081358152602082013560208201526040820135604082015260608201356001600160401b0381111561227d57600080fd5b612289848285016121c7565b60608301525092915050565b60008060008060008060a087890312156122ad578182fd5b86356122b881613027565b955060208701356122c88161303f565b94506040870135935060608701356122df81613027565b925060808701356001600160401b038111156122f9578283fd5b61230589828a01612181565b979a9699509497509295939492505050565b6000806000806080858703121561232c578384fd5b843561233781613027565b9350602085013561234781613027565b9250604085013561235781613027565b9150606085013561236781613027565b939692955090935050565b600060208284031215612383578081fd5b81356001600160401b03811115612398578182fd5b611e2e84828501612119565b6000602082840312156123b5578081fd5b81516111b18161303f565b6000806000606084860312156123d4578283fd5b83356123df81613027565b925060208401356123ef81613027565b929592945050506040919091013590565b6000806000606084860312156123d4578081fd5b60008060008060808587031215612429578182fd5b843561243481613027565b9350602085810135935060408601356001600160401b0380821115612457578485fd5b61246389838a01612119565b94506060880135915080821115612478578384fd5b508601601f81018813612489578283fd5b803561249761213782612fdc565b81815283810190838501858402850186018c10156124b3578687fd5b8694505b838510156124d55780358352600194909401939185019185016124b7565b50979a9699509497505050505050565b600080600080608085870312156124fa578182fd5b843561250581613027565b93506020850135925060408501356001600160401b03811115612526578283fd5b6125328782880161222f565b949793965093946060013593505050565b60008060408385031215612555578182fd5b505080516020909101519092909150565b6000806000806060858703121561257b578182fd5b843593506020850135925060408501356001600160401b0381111561259e578283fd5b6125aa87828801612181565b95989497509550505050565b6000602082840312156125c7578081fd5b81356001600160401b038111156125dc578182fd5b611e2e8482850161222f565b6000602082840312156125f9578081fd5b81356001600160401b038082111561260f578283fd5b9083019060408286031215612622578283fd5b61262c6040612fb6565b82358281111561263a578485fd5b612646878286016121c7565b8252506020830135602082015280935050505092915050565b60008060408385031215612671578182fd5b825161267c8161304d565b602084015190925061268d8161304d565b809150509250929050565b600080600080600060a086880312156126af578283fd5b85516126ba8161304d565b60208701519095506126cb8161304d565b60408701519094506126dc8161304d565b60608701519093506126ed8161304d565b80925050608086015190509295509295909350565b600080600060608486031215612716578081fd5b83516127218161304d565b60208501519093506127328161304d565b604085015190925063ffffffff8116811461274b578182fd5b809150509250925092565b600060208284031215612767578081fd5b5051919050565b600080600060608486031215612782578081fd5b83359250602084013561279481613027565b9150604084013561274b81613027565b600080600080600080600060e0888a0312156127be578485fd5b8751965060208801519550604088015194506060880151935060808801516127e58161303f565b60a08901519093506127f681613027565b60c089015190925061280781613027565b8091505092959891949750929550565b6000815180845261282f816020860160208601612ffb565b601f01601f19169290920160200192915050565b60008251612855818460208701612ffb565b9190910192915050565b60008251612871818460208701612ffb565b68556e6b6e6f776e282960b81b920191825250600901919050565b6000835161289e818460208801612ffb565b650a0c2dcd2c6560d31b90830190815283516128c1816006840160208801612ffb565b602960f81b60069290910191820152600701949350505050565b600083516128ed818460208801612ffb565b6508ae4e4dee4560d31b90830190815283516128c1816006840160208801612ffb565b6001600160f81b0319815260609390931b6bffffffffffffffffffffffff191660018401526015830191909152603582015260550190565b90815260200190565b6001600160a01b0391909116815260200190565b6001600160a01b0392831681529116602082015260400190565b6001600160a01b03938416815291909216602082015262ffffff909116604082015260600190565b6001600160a01b0386811682528515156020830152604082018590528316606082015260a06080820181905260009061209590830184612817565b6001600160a01b03929092168252602082015260400190565b6000602082526111b16020830184612817565b60208082526025908201527f4f70656e4f6365616e3a20496e73756666696369656e7420746f6b656e2062616040820152646c616e636560d81b606082015260800190565b60208082526021908201527f4f70656e4f6365616e3a20496e76616c69642063616c6c20706172616d6574656040820152603960f91b606082015260800190565b6020808252601b908201527f536166654d6174683a206164646974696f6e206f766572666c6f770000000000604082015260600190565b602080825260119082015270746f55696e7432345f6f766572666c6f7760781b604082015260600190565b6020808252601e908201527f536166654d6174683a207375627472616374696f6e206f766572666c6f770000604082015260600190565b60208082526026908201527f416464726573733a20696e73756666696369656e742062616c616e636520666f6040820152651c8818d85b1b60d21b606082015260800190565b60208082526031908201527f4f70656e4f6365616e3a20496e73756666696369656e742062616c616e636520604082015270199bdc88195e1d195c9b985b0818d85b1b607a1b606082015260800190565b6020808252601a908201527f536166654d6174683a206469766973696f6e206279207a65726f000000000000604082015260600190565b602080825260159082015274082e0e0e4deecca40c6c2d8d8cac840dedc408aa89605b1b604082015260600190565b60208082526016908201527513dc195b93d8d9585b8e88139bdd08185b1b1bddd95960521b604082015260600190565b60208082526021908201527f536166654d6174683a206d756c7469706c69636174696f6e206f766572666c6f6040820152607760f81b606082015260800190565b602080825260149082015273746f55696e7432345f6f75744f66426f756e647360601b604082015260600190565b602080825260159082015274746f416464726573735f6f75744f66426f756e647360581b604082015260600190565b60208082526015908201527424b73b30b634b2103932bb32b93a103932b0b9b7b760591b604082015260600190565b60208082526018908201527f4f70656e4f6365616e3a204163636573732044656e6965640000000000000000604082015260600190565b60208082526022908201527f4f70656e4f6365616e3a20496e76616c69642063616c6c20706172616d657465604082015261727360f01b606082015260800190565b6020808252601d908201527f416464726573733a2063616c6c20746f206e6f6e2d636f6e7472616374000000604082015260600190565b60208082526010908201526f556e697377617056333a2044454c544160801b604082015260600190565b6020808252600e908201526d556e697377617056333a2054494160901b604082015260600190565b6020808252602a908201527f5361666545524332303a204552433230206f7065726174696f6e20646964206e6040820152691bdd081cdd58d8d9595960b21b606082015260800190565b60208082526036908201527f5361666545524332303a20617070726f76652066726f6d206e6f6e2d7a65726f60408201527520746f206e6f6e2d7a65726f20616c6c6f77616e636560501b606082015260800190565b602080825260129082015271746f416464726573735f6f766572666c6f7760701b604082015260600190565b6000602082528251602083015260208301516040830152604083015160608301526060830151608080840152611e2e60a0840182612817565b600060208252825160406020840152612f4a6060840182612817565b9050602084015160408401528091505092915050565b92835260208301919091526001600160a01b0316604082015260600190565b600085825284602083015260018060a01b038416604083015260806060830152612fac6080830184612817565b9695505050505050565b6040518181016001600160401b0381118282101715612fd457600080fd5b604052919050565b60006001600160401b03821115612ff1578081fd5b5060209081020190565b60005b83811015613016578181015183820152602001612ffe565b838111156115935750506000910152565b6001600160a01b038116811461303c57600080fd5b50565b801515811461303c57600080fd5b6001600160701b038116811461303c57600080fdfea26469706673582212202b04ac92e045bc69d7e058a768a7231ce37f86b6af260573a873ff27ea46baef64736f6c634300060c0033",
  "devdoc": {
    "kind": "dev",
    "methods": {},
    "version": 1
  },
  "userdoc": {
    "kind": "user",
    "methods": {},
    "version": 1
  },
  "storageLayout": {
    "storage": [],
    "types": null
  }
}