{
  "address": "0x170100a288dc3d7e83fea20441F98166B15b6dF0",
  "abi": [
    {
      "inputs": [
        {
          "internalType": "address",
          "name": "vault",
          "type": "address"
        },
        {
          "internalType": "bytes32",
          "name": "poolId",
          "type": "bytes32"
        },
        {
          "internalType": "address",
          "name": "pool",
          "type": "address"
        }
      ],
      "name": "balancerV2StablePoolState",
      "outputs": [
        {
          "internalType": "contract IERC20[]",
          "name": "tokens",
          "type": "address[]"
        },
        {
          "internalType": "uint256[]",
          "name": "balances",
          "type": "uint256[]"
        },
        {
          "internalType": "uint256",
          "name": "totalSupply",
          "type": "uint256"
        },
        {
          "internalType": "uint256",
          "name": "amp",
          "type": "uint256"
        },
        {
          "internalType": "uint256",
          "name": "swapFee",
          "type": "uint256"
        }
      ],
      "stateMutability": "view",
      "type": "function"
    },
    {
      "inputs": [
        {
          "internalType": "address",
          "name": "vault",
          "type": "address"
        },
        {
          "internalType": "bytes32",
          "name": "poolId",
          "type": "bytes32"
        },
        {
          "internalType": "address",
          "name": "pool",
          "type": "address"
        }
      ],
      "name": "balancerV2WeightedPoolState",
      "outputs": [
        {
          "internalType": "contract IERC20[]",
          "name": "tokens",
          "type": "address[]"
        },
        {
          "internalType": "uint256[]",
          "name": "balances",
          "type": "uint256[]"
        },
        {
          "internalType": "uint256",
          "name": "totalSupply",
          "type": "uint256"
        },
        {
          "internalType": "uint256[]",
          "name": "weights",
          "type": "uint256[]"
        },
        {
          "internalType": "uint256",
          "name": "swapFee",
          "type": "uint256"
        }
      ],
      "stateMutability": "view",
      "type": "function"
    },
    {
      "inputs": [
        {
          "components": [
            {
              "internalType": "address",
              "name": "pool",
              "type": "address"
            },
            {
              "internalType": "uint8",
              "name": "nCoins",
              "type": "uint8"
            },
            {
              "internalType": "uint8",
              "name": "version",
              "type": "uint8"
            },
            {
              "internalType": "uint256",
              "name": "underlyingDecimals",
              "type": "uint256"
            },
            {
              "internalType": "address",
              "name": "rateCallee",
              "type": "address"
            },
            {
              "internalType": "bytes",
              "name": "rateCalldata",
              "type": "bytes"
            }
          ],
          "internalType": "struct ICurveState.CurvePoolStateQuery",
          "name": "query",
          "type": "tuple"
        }
      ],
      "name": "curvePoolState",
      "outputs": [
        {
          "internalType": "uint256[]",
          "name": "balances",
          "type": "uint256[]"
        },
        {
          "internalType": "uint256[]",
          "name": "underlying_balances",
          "type": "uint256[]"
        },
        {
          "internalType": "uint256[]",
          "name": "rates",
          "type": "uint256[]"
        },
        {
          "internalType": "uint256",
          "name": "A",
          "type": "uint256"
        },
        {
          "internalType": "uint256",
          "name": "fee",
          "type": "uint256"
        }
      ],
      "stateMutability": "view",
      "type": "function"
    },
    {
      "inputs": [
        {
          "internalType": "contract IGambitVault",
          "name": "vault",
          "type": "address"
        },
        {
          "internalType": "address[]",
          "name": "tokens",
          "type": "address[]"
        }
      ],
      "name": "gambitState",
      "outputs": [
        {
          "internalType": "bool",
          "name": "inManagerMode",
          "type": "bool"
        },
        {
          "internalType": "bool",
          "name": "isSwapEnabled",
          "type": "bool"
        },
        {
          "internalType": "uint256[]",
          "name": "minPrices",
          "type": "uint256[]"
        },
        {
          "internalType": "uint256[]",
          "name": "maxPrices",
          "type": "uint256[]"
        },
        {
          "internalType": "uint256",
          "name": "stableFlag",
          "type": "uint256"
        },
        {
          "internalType": "uint256[]",
          "name": "usdgAmounts",
          "type": "uint256[]"
        },
        {
          "internalType": "uint256[]",
          "name": "targetUsdgAmounts",
          "type": "uint256[]"
        },
        {
          "components": [
            {
              "internalType": "uint256",
              "name": "stableSwapFeeBasisPoints",
              "type": "uint256"
            },
            {
              "internalType": "uint256",
              "name": "swapFeeBasisPoints",
              "type": "uint256"
            },
            {
              "internalType": "uint256",
              "name": "stableTaxBasisPoints",
              "type": "uint256"
            },
            {
              "internalType": "uint256",
              "name": "taxBasisPoints",
              "type": "uint256"
            },
            {
              "internalType": "uint256",
              "name": "mintBurnFeeBasisPoints",
              "type": "uint256"
            },
            {
              "internalType": "bool",
              "name": "hasDynamicFees",
              "type": "bool"
            }
          ],
          "internalType": "struct IGambitState.GambitStateFee",
          "name": "fee",
          "type": "tuple"
        },
        {
          "internalType": "uint256",
          "name": "whitelistFlag",
          "type": "uint256"
        }
      ],
      "stateMutability": "view",
      "type": "function"
    },
    {
      "inputs": [
        {
          "internalType": "address",
          "name": "pool",
          "type": "address"
        },
        {
          "internalType": "address",
          "name": "token",
          "type": "address"
        }
      ],
      "name": "platypusAssetState",
      "outputs": [
        {
          "internalType": "uint8",
          "name": "decimals",
          "type": "uint8"
        },
        {
          "internalType": "uint256",
          "name": "price",
          "type": "uint256"
        },
        {
          "internalType": "uint256",
          "name": "cash",
          "type": "uint256"
        },
        {
          "internalType": "uint256",
          "name": "liability",
          "type": "uint256"
        }
      ],
      "stateMutability": "view",
      "type": "function"
    },
    {
      "inputs": [
        {
          "internalType": "address",
          "name": "pool",
          "type": "address"
        }
      ],
      "name": "platypusPoolState",
      "outputs": [
        {
          "internalType": "bool",
          "name": "paused",
          "type": "bool"
        },
        {
          "internalType": "uint256",
          "name": "c1",
          "type": "uint256"
        },
        {
          "internalType": "uint256",
          "name": "xThreshold",
          "type": "uint256"
        },
        {
          "internalType": "uint256",
          "name": "slippageParamK",
          "type": "uint256"
        },
        {
          "internalType": "uint256",
          "name": "slippageParamN",
          "type": "uint256"
        },
        {
          "internalType": "uint256",
          "name": "haircutRate",
          "type": "uint256"
        },
        {
          "internalType": "uint256",
          "name": "maxPriceDeviation",
          "type": "uint256"
        }
      ],
      "stateMutability": "view",
      "type": "function"
    },
    {
      "inputs": [
        {
          "internalType": "address",
          "name": "smoothyV1",
          "type": "address"
        }
      ],
      "name": "smoothyV1State",
      "outputs": [
        {
          "internalType": "uint256[]",
          "name": "tokenInfos",
          "type": "uint256[]"
        },
        {
          "internalType": "uint256[]",
          "name": "tokenBalances",
          "type": "uint256[]"
        },
        {
          "internalType": "uint256",
          "name": "totalBalance",
          "type": "uint256"
        },
        {
          "internalType": "uint256",
          "name": "swapFee",
          "type": "uint256"
        }
      ],
      "stateMutability": "view",
      "type": "function"
    },
    {
      "inputs": [
        {
          "internalType": "address",
          "name": "woo",
          "type": "address"
        },
        {
          "internalType": "address",
          "name": "token",
          "type": "address"
        }
      ],
      "name": "wooState",
      "outputs": [
        {
          "internalType": "uint112",
          "name": "",
          "type": "uint112"
        },
        {
          "internalType": "uint64",
          "name": "",
          "type": "uint64"
        },
        {
          "internalType": "uint112",
          "name": "",
          "type": "uint112"
        },
        {
          "internalType": "bool",
          "name": "",
          "type": "bool"
        },
        {
          "internalType": "uint256",
          "name": "",
          "type": "uint256"
        },
        {
          "internalType": "uint256",
          "name": "",
          "type": "uint256"
        },
        {
          "internalType": "uint256",
          "name": "",
          "type": "uint256"
        },
        {
          "internalType": "bool",
          "name": "",
          "type": "bool"
        },
        {
          "internalType": "uint256",
          "name": "",
          "type": "uint256"
        }
      ],
      "stateMutability": "view",
      "type": "function"
    }
  ],
  "transactionHash": "0xdb306f6bb9a3f9208893ad9e8291796b3016ddd4fda87d2640a295ee37578555",
  "args": [],
  "solcInputHash": "05add40c250b0eea51761ae42ff9bb0d",
  "bytecode": "0x608060405234801561001057600080fd5b50612de8806100206000396000f3fe608060405234801561001057600080fd5b50600436106100885760003560e01c8063841ae84d1161005b578063841ae84d1461012957806393f7e6421461014d578063b7eb0fc114610173578063eb6534511461019b57610088565b80631001f9341461008d5780631a4350a9146100ba5780631e308cb3146100e257806343c4ac7314610106575b600080fd5b6100a061009b3660046126c5565b6101be565b6040516100b19594939291906129f2565b60405180910390f35b6100cd6100c8366004612644565b6107d4565b6040516100b199989796959493929190612a79565b6100f56100f03660046124e3565b611104565b6040516100b19594939291906129af565b6101196101143660046124ab565b6112fe565b6040516100b19493929190612cc3565b61013c6101373660046124e3565b6115e6565b6040516100b195949392919061295d565b61016061015b366004612473565b61179b565b6040516100b19796959493929190612b32565b6101866101813660046124ab565b611ad6565b6040516100b199989796959493929190612c6a565b6101ae6101a9366004612473565b611e27565b6040516100b19493929190612a40565b6040805160088082526101208201909252606091829182916000918291602082016101008036833701905050945060005b866020015160ff1681101561032e57866040015160ff16600114610291578651604051634903b0d160e01b81526001600160a01b0390911690634903b0d19061023c908490600401612b64565b60206040518083038186803b15801561025457600080fd5b505afa158015610268573d6000803e3d6000fd5b505050506040513d601f19601f8201168201806040525081019061028c9190612812565b61030f565b865160405162cb501b60e31b81526001600160a01b039091169063065a80d8906102bf908490600401612b6d565b60206040518083038186803b1580156102d757600080fd5b505afa1580156102eb573d6000803e3d6000fd5b505050506040513d601f19601f8201168201806040525081019061030f9190612812565b86828151811061031b57fe5b60209081029190910101526001016101ef565b5060408051600880825261012082019092529060208201610100803683375050506060870151909350156105e057608086015160a0870151602088015160609060ff166001600160401b038111801561038657600080fd5b506040519080825280602002602001820160405280156103b0578160200160208202803683370190505b509050600082511180156103cb57506001600160a01b038316155b156105225760005b896020015160ff1681101561052057896040015160ff1660011461047557895160405163c661065760e01b81526001600160a01b039091169063c661065790610420908490600401612b64565b60206040518083038186803b15801561043857600080fd5b505afa15801561044c573d6000803e3d6000fd5b505050506040513d601f19601f82011682018060405250810190610470919061248f565b6104f4565b895160405163046e8dd760e31b81526001600160a01b03909116906323746eb8906104a4908490600401612b6d565b60206040518083038186803b1580156104bc57600080fd5b505afa1580156104d0573d6000803e3d6000fd5b505050506040513d601f19601f820116820180604052508101906104f4919061248f565b82828151811061050057fe5b6001600160a01b03909216602092830291909101909101526001016103d3565b505b60005b896020015160ff168110156105d757825161056057670de0b6b3a764000087828151811061054f57fe5b6020026020010181815250506105cf565b606061059f846001600160a01b0387161561057b5786610590565b84848151811061058757fe5b60200260200101515b6001600160a01b031690612150565b9050808060200190518101906105b59190612812565b8883815181106105c157fe5b602002602001018181525050505b600101610525565b5050505061061c565b60005b866020015160ff1681101561061a57670de0b6b3a764000084828151811061060757fe5b60209081029190910101526001016105e3565b505b60408051600880825261012082019092529060208201610100803683375050506060870151909450156106dd5760005b866020015160ff168110156106db576000610100826008028960600151901c8161067257fe5b0690506106bb81600a0a6106b587858151811061068b57fe5b60200260200101518a868151811061069f57fe5b602002602001015161217e90919063ffffffff16565b906121c1565b8683815181106106c757fe5b60209081029190910101525060010161064c565b505b85600001516001600160a01b031663f446c1d06040518163ffffffff1660e01b815260040160206040518083038186803b15801561071a57600080fd5b505afa15801561072e573d6000803e3d6000fd5b505050506040513d601f19601f820116820180604052508101906107529190612812565b915085600001516001600160a01b031663ddca3f436040518163ffffffff1660e01b815260040160206040518083038186803b15801561079157600080fd5b505afa1580156107a5573d6000803e3d6000fd5b505050506040513d601f19601f820116820180604052508101906107c99190612812565b905091939590929450565b60008060608060006060806107e76122d1565b60008b6001600160a01b0316639060b1ca6040518163ffffffff1660e01b815260040160206040518083038186803b15801561082257600080fd5b505afa158015610836573d6000803e3d6000fd5b505050506040513d601f19601f8201168201806040525081019061085a9190612628565b98508b6001600160a01b031663351a964d6040518163ffffffff1660e01b815260040160206040518083038186803b15801561089557600080fd5b505afa1580156108a9573d6000803e3d6000fd5b505050506040513d601f19601f820116820180604052508101906108cd9190612628565b9750896001600160401b03811180156108e557600080fd5b5060405190808252806020026020018201604052801561090f578160200160208202803683370190505b509650896001600160401b038111801561092857600080fd5b50604051908082528060200260200182016040528015610952578160200160208202803683370190505b50955060009450896001600160401b038111801561096f57600080fd5b50604051908082528060200260200182016040528015610999578160200160208202803683370190505b509350896001600160401b03811180156109b257600080fd5b506040519080825280602002602001820160405280156109dc578160200160208202803683370190505b5092508b6001600160a01b031663df73a2676040518163ffffffff1660e01b815260040160206040518083038186803b158015610a1857600080fd5b505afa158015610a2c573d6000803e3d6000fd5b505050506040513d601f19601f82011682018060405250810190610a509190612812565b8260000181815250508b6001600160a01b031663a22f23926040518163ffffffff1660e01b815260040160206040518083038186803b158015610a9257600080fd5b505afa158015610aa6573d6000803e3d6000fd5b505050506040513d601f19601f82011682018060405250810190610aca9190612812565b8260200181815250508b6001600160a01b03166310eb56c26040518163ffffffff1660e01b815260040160206040518083038186803b158015610b0c57600080fd5b505afa158015610b20573d6000803e3d6000fd5b505050506040513d601f19601f82011682018060405250810190610b449190612812565b8260400181815250508b6001600160a01b0316637a210a2b6040518163ffffffff1660e01b815260040160206040518083038186803b158015610b8657600080fd5b505afa158015610b9a573d6000803e3d6000fd5b505050506040513d601f19601f82011682018060405250810190610bbe9190612812565b8260600181815250508b6001600160a01b0316634d47b3046040518163ffffffff1660e01b815260040160206040518083038186803b158015610c0057600080fd5b505afa158015610c14573d6000803e3d6000fd5b505050506040513d601f19601f82011682018060405250810190610c389190612812565b8260800181815250508b6001600160a01b0316639f392eb36040518163ffffffff1660e01b815260040160206040518083038186803b158015610c7a57600080fd5b505afa158015610c8e573d6000803e3d6000fd5b505050506040513d601f19601f82011682018060405250810190610cb29190612628565b151560a0830152506000805b8a8110156110f4578c6001600160a01b03166381a612d68d8d84818110610ce157fe5b9050602002016020810190610cf69190612473565b6040518263ffffffff1660e01b8152600401610d129190612949565b60206040518083038186803b158015610d2a57600080fd5b505afa158015610d3e573d6000803e3d6000fd5b505050506040513d601f19601f82011682018060405250810190610d629190612812565b888281518110610d6e57fe5b6020026020010181815250508c6001600160a01b031663e124e6d28d8d84818110610d9557fe5b9050602002016020810190610daa9190612473565b6040518263ffffffff1660e01b8152600401610dc69190612949565b60206040518083038186803b158015610dde57600080fd5b505afa158015610df2573d6000803e3d6000fd5b505050506040513d601f19601f82011682018060405250810190610e169190612812565b878281518110610e2257fe5b6020026020010181815250508c6001600160a01b03166342b60b038d8d84818110610e4957fe5b9050602002016020810190610e5e9190612473565b6040518263ffffffff1660e01b8152600401610e7a9190612949565b60206040518083038186803b158015610e9257600080fd5b505afa158015610ea6573d6000803e3d6000fd5b505050506040513d601f19601f82011682018060405250810190610eca9190612628565b15610ed957806001901b861795505b8c6001600160a01b0316631aa4ace58d8d84818110610ef457fe5b9050602002016020810190610f099190612473565b6040518263ffffffff1660e01b8152600401610f259190612949565b60206040518083038186803b158015610f3d57600080fd5b505afa158015610f51573d6000803e3d6000fd5b505050506040513d601f19601f82011682018060405250810190610f759190612812565b858281518110610f8157fe5b6020026020010181815250508c6001600160a01b0316633a05dcc18d8d84818110610fa857fe5b9050602002016020810190610fbd9190612473565b6040518263ffffffff1660e01b8152600401610fd99190612949565b60206040518083038186803b158015610ff157600080fd5b505afa158015611005573d6000803e3d6000fd5b505050506040513d601f19601f820116820180604052508101906110299190612812565b84828151811061103557fe5b6020026020010181815250508c6001600160a01b031663daf9c2108d8d8481811061105c57fe5b90506020020160208101906110719190612473565b6040518263ffffffff1660e01b815260040161108d9190612949565b60206040518083038186803b1580156110a557600080fd5b505afa1580156110b9573d6000803e3d6000fd5b505050506040513d601f19601f820116820180604052508101906110dd9190612628565b156110ec57806001901b821791505b600101610cbe565b5093979b92969a50939750939750565b6060806000806000876001600160a01b031663f94d4668886040518263ffffffff1660e01b81526004016111389190612b64565b60006040518083038186803b15801561115057600080fd5b505afa158015611164573d6000803e3d6000fd5b505050506040513d6000823e601f3d908101601f1916820160405261118c9190810190612524565b508095508196505050856001600160a01b03166318160ddd6040518163ffffffff1660e01b815260040160206040518083038186803b1580156111ce57600080fd5b505afa1580156111e2573d6000803e3d6000fd5b505050506040513d601f19601f820116820180604052508101906112069190612812565b9250856001600160a01b0316636daccffa6040518163ffffffff1660e01b815260040160606040518083038186803b15801561124157600080fd5b505afa158015611255573d6000803e3d6000fd5b505050506040513d601f19601f82011682018060405250810190611279919061282a565b90505080925050856001600160a01b03166355c676286040518163ffffffff1660e01b815260040160206040518083038186803b1580156112b957600080fd5b505afa1580156112cd573d6000803e3d6000fd5b505050506040513d601f19601f820116820180604052508101906112f19190612812565b9050939792965093509350565b600080600080856001600160a01b03166371f96211866040518263ffffffff1660e01b81526004016113309190612949565b60206040518083038186803b15801561134857600080fd5b505afa925050508015611378575060408051601f3d908101601f191682019092526113759181019061248f565b60015b61138d575060009250829150819050806115dd565b6000876001600160a01b031663fca513a86040518163ffffffff1660e01b815260040160206040518083038186803b1580156113c857600080fd5b505afa1580156113dc573d6000803e3d6000fd5b505050506040513d601f19601f82011682018060405250810190611400919061248f565b9050816001600160a01b031663313ce5676040518163ffffffff1660e01b815260040160206040518083038186803b15801561143b57600080fd5b505afa15801561144f573d6000803e3d6000fd5b505050506040513d601f19601f82011682018060405250810190611473919061289f565b60405163b3596f0760e01b81529096506001600160a01b0382169063b3596f07906114a2908a90600401612949565b60206040518083038186803b1580156114ba57600080fd5b505afa1580156114ce573d6000803e3d6000fd5b505050506040513d601f19601f820116820180604052508101906114f29190612812565b9450816001600160a01b031663961be3916040518163ffffffff1660e01b815260040160206040518083038186803b15801561152d57600080fd5b505afa158015611541573d6000803e3d6000fd5b505050506040513d601f19601f820116820180604052508101906115659190612812565b9350816001600160a01b031663705727b56040518163ffffffff1660e01b815260040160206040518083038186803b1580156115a057600080fd5b505afa1580156115b4573d6000803e3d6000fd5b505050506040513d601f19601f820116820180604052508101906115d89190612812565b925050505b92959194509250565b606080600060606000876001600160a01b031663f94d4668886040518263ffffffff1660e01b815260040161161b9190612b64565b60006040518083038186803b15801561163357600080fd5b505afa158015611647573d6000803e3d6000fd5b505050506040513d6000823e601f3d908101601f1916820160405261166f9190810190612524565b508095508196505050856001600160a01b03166318160ddd6040518163ffffffff1660e01b815260040160206040518083038186803b1580156116b157600080fd5b505afa1580156116c5573d6000803e3d6000fd5b505050506040513d601f19601f820116820180604052508101906116e99190612812565b9250856001600160a01b031663f89f27ed6040518163ffffffff1660e01b815260040160006040518083038186803b15801561172457600080fd5b505afa158015611738573d6000803e3d6000fd5b505050506040513d6000823e601f3d908101601f1916820160405261176091908101906125ee565b9150856001600160a01b03166355c676286040518163ffffffff1660e01b815260040160206040518083038186803b1580156112b957600080fd5b6000806000806000806000876001600160a01b0316635c975abb6040518163ffffffff1660e01b815260040160206040518083038186803b1580156117df57600080fd5b505afa1580156117f3573d6000803e3d6000fd5b505050506040513d601f19601f820116820180604052508101906118179190612628565b9650876001600160a01b031663a76f54d26040518163ffffffff1660e01b815260040160206040518083038186803b15801561185257600080fd5b505afa158015611866573d6000803e3d6000fd5b505050506040513d601f19601f8201168201806040525081019061188a9190612812565b9550876001600160a01b0316637a1c36d16040518163ffffffff1660e01b815260040160206040518083038186803b1580156118c557600080fd5b505afa1580156118d9573d6000803e3d6000fd5b505050506040513d601f19601f820116820180604052508101906118fd9190612812565b9450876001600160a01b03166355af008a6040518163ffffffff1660e01b815260040160206040518083038186803b15801561193857600080fd5b505afa15801561194c573d6000803e3d6000fd5b505050506040513d601f19601f820116820180604052508101906119709190612812565b9350876001600160a01b0316637727c6556040518163ffffffff1660e01b815260040160206040518083038186803b1580156119ab57600080fd5b505afa1580156119bf573d6000803e3d6000fd5b505050506040513d601f19601f820116820180604052508101906119e39190612812565b9250876001600160a01b0316637fdd5a8e6040518163ffffffff1660e01b815260040160206040518083038186803b158015611a1e57600080fd5b505afa158015611a32573d6000803e3d6000fd5b505050506040513d601f19601f82011682018060405250810190611a569190612812565b9150876001600160a01b031663ddcbc5166040518163ffffffff1660e01b815260040160206040518083038186803b158015611a9157600080fd5b505afa158015611aa5573d6000803e3d6000fd5b505050506040513d601f19601f82011682018060405250810190611ac99190612812565b9050919395979092949650565b6000806000806000806000806000611aec612309565b60405163f5dab71160e01b81526001600160a01b038d169063f5dab71190611b18908e90600401612949565b60c06040518083038186803b158015611b3057600080fd5b505afa158015611b44573d6000803e3d6000fd5b505050506040513d601f19601f82011682018060405250810190611b689190612783565b909192935090919250846000018560200186604001876060018415151515815250846001600160701b03166001600160701b0316815250846001600160401b03166001600160401b0316815250846001600160701b03166001600160701b0316815250505050508b6001600160a01b031663d0fb02036040518163ffffffff1660e01b815260040160206040518083038186803b158015611c0857600080fd5b505afa158015611c1c573d6000803e3d6000fd5b505050506040513d601f19601f82011682018060405250810190611c40919061248f565b6001600160a01b031663d0254a2c8c6040518263ffffffff1660e01b8152600401611c6b9190612949565b60206040518083038186803b158015611c8357600080fd5b505afa158015611c97573d6000803e3d6000fd5b505050506040513d601f19601f82011682018060405250810190611cbb9190612812565b816101000181815250508b6001600160a01b031663bc8530f96040518163ffffffff1660e01b815260040160206040518083038186803b158015611cfe57600080fd5b505afa158015611d12573d6000803e3d6000fd5b505050506040513d601f19601f82011682018060405250810190611d36919061248f565b6001600160a01b03166331e658a58c6040518263ffffffff1660e01b8152600401611d619190612949565b60806040518083038186803b158015611d7957600080fd5b505afa158015611d8d573d6000803e3d6000fd5b505050506040513d601f19601f82011682018060405250810190611db1919061285f565b846080018560a0018660c0018760e001841515151581525084815250848152508481525050505050806000015181602001518260400151836060015184608001518560a001518660c001518760e00151886101000151995099509950995099509950995099509950509295985092959850929598565b6060806000806000856001600160a01b03166385c9f85e6040518163ffffffff1660e01b815260040160206040518083038186803b158015611e6857600080fd5b505afa158015611e7c573d6000803e3d6000fd5b505050506040513d601f19601f82011682018060405250810190611ea09190612812565b9050806001600160401b0381118015611eb857600080fd5b50604051908082528060200260200182016040528015611ee2578160200160208202803683370190505b509450806001600160401b0381118015611efb57600080fd5b50604051908082528060200260200182016040528015611f25578160200160208202803683370190505b50935060005b8181101561206157604051638676192b60e01b81526001600160a01b03881690638676192b90611f5f908490600401612b64565b60206040518083038186803b158015611f7757600080fd5b505afa158015611f8b573d6000803e3d6000fd5b505050506040513d601f19601f82011682018060405250810190611faf9190612812565b868281518110611fbb57fe5b6020908102919091010152604051631e01043960e01b81526001600160a01b03881690631e01043990611ff2908490600401612b64565b60206040518083038186803b15801561200a57600080fd5b505afa15801561201e573d6000803e3d6000fd5b505050506040513d601f19601f820116820180604052508101906120429190612812565b85828151811061204e57fe5b6020908102919091010152600101611f2b565b50856001600160a01b031663252f7b496040518163ffffffff1660e01b815260040160206040518083038186803b15801561209b57600080fd5b505afa1580156120af573d6000803e3d6000fd5b505050506040513d601f19601f820116820180604052508101906120d39190612812565b9250856001600160a01b031663832781556040518163ffffffff1660e01b815260040160206040518083038186803b15801561210e57600080fd5b505afa158015612122573d6000803e3d6000fd5b505050506040513d601f19601f820116820180604052508101906121469190612812565b9150509193509193565b60606121758383604051806060016040528060258152602001612d8e602591396121f3565b90505b92915050565b60008261218d57506000612178565b8282028284828161219a57fe5b04146121755760405162461bcd60e51b81526004016121b890612be5565b60405180910390fd5b60008082116121e25760405162461bcd60e51b81526004016121b890612bae565b8183816121eb57fe5b049392505050565b60606121fe84612292565b61221a5760405162461bcd60e51b81526004016121b890612c26565b60006060856001600160a01b031685604051612236919061292d565b600060405180830381855afa9150503d8060008114612271576040519150601f19603f3d011682016040523d82523d6000602084013e612276565b606091505b5091509150612286828286612298565b925050505b9392505050565b3b151590565b606083156122a757508161228b565b8251156122b75782518084602001fd5b8160405162461bcd60e51b81526004016121b89190612b7b565b6040518060c0016040528060008152602001600081526020016000815260200160008152602001600081526020016000151581525090565b6040805161012081018252600080825260208201819052918101829052606081018290526080810182905260a0810182905260c0810182905260e0810182905261010081019190915290565b803561217881612d58565b600082601f830112612370578081fd5b815161238361237e82612d09565b612ce3565b8181529150602080830190848101818402860182018710156123a457600080fd5b60005b848110156123c3578151845292820192908201906001016123a7565b505050505092915050565b8051801515811461217857600080fd5b600082601f8301126123ee578081fd5b81356001600160401b03811115612403578182fd5b612416601f8201601f1916602001612ce3565b915080825283602082850101111561242d57600080fd5b8060208401602084013760009082016020015292915050565b805161217881612d58565b80516001600160701b038116811461217857600080fd5b803561217881612d7e565b600060208284031215612484578081fd5b813561217581612d58565b6000602082840312156124a0578081fd5b815161217581612d58565b600080604083850312156124bd578081fd5b82356124c881612d58565b915060208301356124d881612d58565b809150509250929050565b6000806000606084860312156124f7578081fd5b833561250281612d58565b925060208401359150604084013561251981612d58565b809150509250925092565b600080600060608486031215612538578283fd5b83516001600160401b038082111561254e578485fd5b818601915086601f830112612561578485fd5b815161256f61237e82612d09565b80828252602080830192508086018b82838702890101111561258f57898afd5b8996505b848710156125b9576125a58c82612446565b845260019690960195928101928101612593565b5089015190975093505050808211156125d0578384fd5b506125dd86828701612360565b925050604084015190509250925092565b6000602082840312156125ff578081fd5b81516001600160401b03811115612614578182fd5b61262084828501612360565b949350505050565b600060208284031215612639578081fd5b815161217581612d70565b600080600060408486031215612658578081fd5b833561266381612d58565b925060208401356001600160401b038082111561267e578283fd5b818601915086601f830112612691578283fd5b81358181111561269f578384fd5b87602080830285010111156126b2578384fd5b6020830194508093505050509250925092565b6000602082840312156126d6578081fd5b81356001600160401b03808211156126ec578283fd5b9083019060c082860312156126ff578283fd5b61270960c0612ce3565b823561271481612d58565b8152602083013561272481612d7e565b60208201526127368660408501612468565b6040820152606083013560608201526127528660808501612355565b608082015260a083013582811115612768578485fd5b612774878286016123de565b60a08301525095945050505050565b60008060008060008060c0878903121561279b578384fd5b6127a58888612451565b95506127b48860208901612451565b9450604087015163ffffffff811681146127cc578485fd5b60608801519094506001600160401b03811681146127e8578283fd5b92506127f78860808901612451565b91506128068860a089016123ce565b90509295509295509295565b600060208284031215612823578081fd5b5051919050565b60008060006060848603121561283e578081fd5b8351925061284f85602086016123ce565b9150604084015190509250925092565b60008060008060808587031215612874578182fd5b845193506020850151925060408501519150606085015161289481612d70565b939692955090935050565b6000602082840312156128b0578081fd5b815161217581612d7e565b6000815180845260208085019450808401835b838110156128f35781516001600160a01b0316875295820195908201906001016128ce565b509495945050505050565b6000815180845260208085019450808401835b838110156128f357815187529582019590820190600101612911565b6000825161293f818460208701612d28565b9190910192915050565b6001600160a01b0391909116815260200190565b600060a0825261297060a08301886128bb565b828103602084015261298281886128fe565b9050856040840152828103606084015261299c81866128fe565b9150508260808301529695505050505050565b600060a082526129c260a08301886128bb565b82810360208401526129d481886128fe565b60408401969096525050606081019290925260809091015292915050565b600060a08252612a0560a08301886128fe565b8281036020840152612a1781886128fe565b90508281036040840152612a2b81876128fe565b60608401959095525050608001529392505050565b600060808252612a5360808301876128fe565b8281036020840152612a6581876128fe565b604084019590955250506060015292915050565b60006101c08b151583528a15156020840152806040840152612a9d8184018b6128fe565b90508281036060840152612ab1818a6128fe565b905087608084015282810360a0840152612acb81886128fe565b905082810360c0840152612adf81876128fe565b855160e0850152602086015161010085015260408601516101208501526060860151610140850152608086015161016085015260a090950151151561018084015250506101a00152979650505050505050565b9615158752602087019590955260408601939093526060850191909152608084015260a083015260c082015260e00190565b90815260200190565b600f9190910b815260200190565b6000602082528251806020840152612b9a816040850160208701612d28565b601f01601f19169190910160400192915050565b6020808252601a908201527f536166654d6174683a206469766973696f6e206279207a65726f000000000000604082015260600190565b60208082526021908201527f536166654d6174683a206d756c7469706c69636174696f6e206f766572666c6f6040820152607760f81b606082015260800190565b60208082526024908201527f416464726573733a207374617469632063616c6c20746f206e6f6e2d636f6e746040820152631c9858dd60e21b606082015260800190565b6001600160701b03998a1681526001600160401b039890981660208901529590971660408701529215156060860152608085019190915260a084015260c083015291151560e08201526101008101919091526101200190565b60ff94909416845260208401929092526040830152606082015260800190565b6040518181016001600160401b0381118282101715612d0157600080fd5b604052919050565b60006001600160401b03821115612d1e578081fd5b5060209081020190565b60005b83811015612d43578181015183820152602001612d2b565b83811115612d52576000848401525b50505050565b6001600160a01b0381168114612d6d57600080fd5b50565b8015158114612d6d57600080fd5b60ff81168114612d6d57600080fdfe416464726573733a206c6f772d6c6576656c207374617469632063616c6c206661696c6564a2646970667358221220cd29e4ab58fe87f89be6b4e8624499e0131b5e97de2e08bdf36b7a98ae8b187464736f6c634300060c0033",
  "devdoc": {
    "kind": "dev",
    "methods": {},
    "version": 1
  },
  "userdoc": {
    "kind": "user",
    "methods": {},
    "version": 1
  },
  "storageLayout": {
    "storage": [],
    "types": null
  }
}